:100000000C9472000C9493000C9493000C94930045
:100010000C9493000C9493000C9493000C94930014
:100020000C9493000C9493000C9493000C94930004
:100030000C9493000C9493000C9493000C949300F4
:100040000C9493000C9493000C9493000C949300E4
:100050000C9493000C9493000C9493000C949300D4
:100060000C9493000C942D040C94F2030C949300C4
:100070000C9493000C9493000C9493000C949300B4
:100080000C9493000C9493000C9493000C949300A4
:100090000C9493000C9493000C9493000C94930094
:1000A0000C9493000C9493000C9493000C94930084
:1000B0000C9493000C9493000C9493000C94930074
:1000C0000C9493000C9493000C9493000C94930064
:1000D0000C9493000C9493000C9493000C94930054
:1000E0000C94930011241FBECFEFD1E2DEBFCDBF31
:1000F00000E00CBF13E0A0E0B2E0E0E8F6E100E0D1
:100100000BBF02C007900D92A23DB107D9F714E0D2
:10011000A2EDB3E001C01D92A635B107E1F70E9440
:1001200078040C943F0B0C940000CF93DF93CDB771
:10013000DEB722970FB6F894DEBF0FBECDBF809119
:100140001204882F90E001969C012F7330708091EB
:100150001304882F90E01A8219822817390721F09A
:1001600081E090E09A83898389819A8122960FB6F3
:10017000F894DEBF0FBECDBFDF91CF9108950F93EE
:10018000CF93DF93CDB7DEB760970FB6F894DEBF9D
:100190000FBECDBF8D837F836E83488729870A87F3
:1001A00080EC90E09C838B838E819F81CC01A0E0CA
:1001B000B0E0BC01CD010E948208DC01CB019C01B2
:1001C000AD0160E074E284E799E40E944407DC0139
:1001D000CB0120E030E040E85FE3BC01CD010E94AC
:1001E000E606DC01CB01BC01CD010E947A05DC01F1
:1001F000CB019A8389838B819C81FC013596108287
:100200008B819C81FC013496898180838B819C81C8
:10021000DC0111968B819C81FC0131968081886B79
:100220008C938885282F30E0388B2F878F8598898D
:100230008630910511F12F8538892730310534F446
:100240008F8598898530910561F03AC02F8538896E
:1002500027303105F1F08F8598898830910529F193
:100260002FC08B819C81DC0112968B819C81FC01CB
:1002700032968081897F8C9323C08B819C81DC01A5
:1002800012968B819C81FC013296808182608C93D6
:1002900017C08B819C81DC0112968B819C81FC01B3
:1002A0003296808184608C930BC08B819C81DC01B1
:1002B00012968B819C81FC013296808186608C93A2
:1002C0008985282F30E03E872D878D859E8581305A
:1002D000910531F02D853E852230310569F017C03A
:1002E0008B819C81DC0112968B819C81FC01329672
:1002F000808180638C930BC08B819C81DC01129682
:100300008B819C81FC013296808180628C938A85EE
:10031000282F30E03C872B878B859C858130910589
:1003200031F02B853C852230310569F017C08B8177
:100330009C81DC0112968B819C81FC01329680812C
:10034000877F8C930BC08B819C81DC0112968B8103
:100350009C81FC013296808188608C9310921204FB
:1003600010921304109254041092550460960FB624
:10037000F894DEBF0FBECDBFDF91CF910F910895EE
:10038000CF93DF93CDB7DEB721970FB6F894DEBFDA
:100390000FBECDBF898380915404882F90E00196D1
:1003A0009C012F73307080915504882F90E028179E
:1003B000390789F3809155048F5F8F7380935504BB
:1003C00080915504882F90E0FC01EC5EFB4F898101
:1003D0008083A1ECB0E0E1ECF0E0808180628C935E
:1003E00021960FB6F894DEBF0FBECDBFDF91CF913F
:1003F0000895CF93DF93CDB7DEB721970FB6F8946A
:10040000DEBF0FBECDBF0E9495008823E1F780912B
:1004100012048F5F8F738093120480911204882FCF
:1004200090E0FC01EE52FC4F8081898389810E941B
:10043000C0018981882F90E021960FB6F894DEBF25
:100440000FBECDBFDF91CF910895CF93DF93CDB78E
:10045000DEB722970FB6F894DEBF0FBECDBF9A83EA
:1004600089830BC0E981FA81208189819A81019673
:100470009A838983822F0E94C001E981FA81808159
:10048000882381F722960FB6F894DEBF0FBECDBF4A
:10049000DF91CF910895CF93DF93CDB7DEB7259746
:1004A0000FB6F894DEBF0FBECDBF9D838C838C81C9
:1004B0009D819B838A830E94F90189833BC0898146
:1004C0008830C1F42C813D818A819B8128173907AE
:1004D00061F080E20E94C00189810E94C0018C818C
:1004E0009D8101979D838C8322C080E092E00E94D1
:1004F00025021DC08A819B819C012D5E3F4F8C810E
:100500009D818217930750F088E00E94C00180E22D
:100510000E94C00188E00E94C00109C0EC81FD81F9
:10052000898180838C819D8101969D838C830E942B
:10053000F901898389818D3011F68DE00E94C00117
:100540008AE00E94C001EC81FD81108225960FB6E1
:10055000F894DEBF0FBECDBFDF91CF910895CF934A
:10056000DF93CDB7DEB76E970FB6F894DEBF0FBE40
:10057000CDBF988F8F8B7A8F698F4B8F1A8219829C
:1005800089819A819E012D5F3F4F3E8F2D8FED8D8A
:10059000FE8DE80FF91FFE8FED8F8B8D282F30E039
:1005A000898D9A8DB9010E94F40A8A30910560F014
:1005B0008B8D282F30E0898D9A8DB9010E94F40A25
:1005C000F82FF95CFC8F0BC08B8D282F30E0898DC4
:1005D0009A8DB9010E94F40A282F205D2C8F2C8D52
:1005E000ED8DFE8D208389819A8101969A8389837E
:1005F0008B8D282F30E0898D9A8DB9010E94F40AE5
:10060000CB019A8F898F898D9A8D009709F0B8CF89
:1006100014C089819A8101979A83898389819A81FB
:10062000FE013396E80FF91F8081EF89F88D8083F2
:100630008F89988D0196988F8F8B89819A81181652
:1006400019063CF3EF89F88D10826E960FB6F89478
:10065000DEBF0FBECDBFDF91CF910895CF93DF9363
:10066000CDB7DEB726970FB6F894DEBF0FBECDBF6D
:100670009C838B83EB81FC818081882369F11A82C2
:1006800019821BC089819A819C01220F331FC901E5
:10069000880F991F880F991F280F391FEB81FC8144
:1006A0008081882F90E0820F931FC0979A8389835F
:1006B0008B819C8101969C838B83EB81FC81808163
:1006C000803328F0EB81FC8180818A33D8F28981E4
:1006D0009A819E838D8302C01E821D828D819E81A0
:1006E00026960FB6F894DEBF0FBECDBFDF91CF9137
:1006F0000895CF93DF93CDB7DEB785E092E00E94F7
:100700002502DF91CF910895CF93DF93CDB7DEB768
:1007100021970FB6F894DEBF0FBECDBF89838DE061
:1007200092E00E94250289819AE0692F0E94E80ADE
:10073000805D0E94C00189819AE0692F0E94E80AC9
:10074000892F805D0E94C00181E192E00E94250214
:1007500021960FB6F894DEBF0FBECDBFDF91CF91CB
:100760000895CF93DF93CDB7DEB722970FB6F894F5
:10077000DEBF0FBECDBF89836A8383E192E00E9412
:1007800025028A819AE0692F0E94E80A805D0E9412
:10079000C0018A819AE0692F0E94E80A892F805D52
:1007A0000E94C0018BE30E94C00189819AE0692FF9
:1007B0000E94E80A805D0E94C00189819AE0692F49
:1007C0000E94E80A892F805D0E94C00188E40E948F
:1007D000C00122960FB6F894DEBF0FBECDBFDF91E9
:1007E000CF9108951F920F920FB60F9211248F93FD
:1007F0009F93AF93BF93EF93FF93CF93DF93CDB7C7
:10080000DEB79091540480915504981741F4A1ECFF
:10081000B0E0E1ECF0E080818F7D8C9311C080919D
:1008200054048F5F8F7380935404A6ECB0E08091E2
:100830005404882F90E0FC01EC5EFB4F80818C9388
:10084000DF91CF91FF91EF91BF91AF919F918F91E8
:100850000F900FBE0F901F9018951F920F920FB61A
:100860000F9211242F933F938F939F93EF93FF93B6
:10087000CF93DF93CDB7DEB780911204882F90E03D
:1008800001969C012F73307080911304882F90E0A3
:100890002817390789F0809113048F5F8F73809335
:1008A000130480911304882F90E0E6ECF0E020819F
:1008B000FC01EE52FC4F2083DF91CF91FF91EF912D
:1008C0009F918F913F912F910F900FBE0F901F908E
:1008D0001895CF93DF93CDB7DEB7E0E3F0E08FE775
:1008E0008083E1E3F0E080E88083DF91CF91089599
:1008F0000F93CF93DF93CDB7DEB766970FB6F8941B
:10090000DEBF0FBECDBF789402E021E048E069E38E
:1009100070E380E00E94BF000E9469040E94F90118
:10092000899A0E94790362E082E00E94B10381E229
:100930000E94840387EA92E00E94250280E20E94DE
:100940008403CE0103960E944B02CE0103960E94BF
:100950002E039A83898389819A819E012D5F3F4F5F
:1009600040E1BC01C9010E94AF0263E085E00E9442
:10097000B10382E20E9484038DEB92E00E94250283
:10098000CE0103960E94250289819A819E012D5FE6
:100990003F4F42E0BC01C9010E94AF0264E085E024
:1009A0000E94B10383EC92E00E942502CE010396DF
:1009B0000E942502CE01039629813A81BC01C9011A
:1009C0000E94EF0465E085E00E94B10383EC92E0B1
:1009D0000E942502CE0103960E9425029FCFCF934D
:1009E000DF93CDB7DEB726970FB6F894DEBF0FBE04
:1009F000CDBF9C838B837E836D831A8219828B810A
:100A00009C81009709F066C0ED81FE818EE68083AF
:100A10008D819E8101969E838D83ED81FE81108262
:100A200060C019821CC08A81882F90E0880F991FAE
:100A3000FC01E55AFD4F208131818981882F90E0AA
:100A4000F901E80FF91F8081ED81FE8180838D819E
:100A50009E8101969E838D8389818F5F89838A81A0
:100A6000882F90E0880F991FFC01E55AFD4F2081E7
:100A700031818981882F90E0F901E80FF91F808189
:100A8000882389F68A81882F90E0880F991FFC01BE
:100A9000EF57FD4F808191819C018B819C81821B4E
:100AA000930B9C838B838A81882F90E0880F991FFA
:100AB000FC01EF57FD4F808191819C018B819C81CE
:100AC000B9010E94F40ACB01009709F0AACF8A81EC
:100AD0008F5F8A838B819C81009729F7ED81FE814E
:100AE000108226960FB6F894DEBF0FBECDBFDF9101
:100AF000CF910895EF92FF920F931F937B018C018A
:100B000020E030E040E05FE40E94F90788237CF0B9
:100B100020E030E040E05FE4C801B7010E94E60653
:100B20000E942F08605070408040904804C0C80167
:100B3000B7010E942F081F910F91FF90EF90089529
:100B4000A0E0B0E0E6EAF5E00C940A0B2C015B01B2
:100B5000FA01DC019C91923008F432C1EB018881EA
:100B6000823008F42CC1943071F4843009F028C12B
:100B7000F20191818981981709F422C119EC412E63
:100B800012E0512E1DC1843009F419C18230A9F43C
:100B9000923009F015C1CA01A20128E0DA010D90D6
:100BA000AD01EC010992CE012150C1F7E501898127
:100BB000E20199818923818300C1923009F4FFC049
:100BC000E201CA80DB80EB018A819B81E2012C81FA
:100BD0003D814E815F81EB01EC80FD800E811F81A4
:100BE000B601681B790BDB0177FF03C07095619537
:100BF0007F4F603271050CF05DC01A161B065CF564
:100C000066247724430181E090E0A0E0B0E0062E66
:100C100004C0880F991FAA1FBB1F0A94D2F701971F
:100C2000A109B1098E219F21A023B1230097A1051D
:100C3000B10529F0B1E06B2E712C812C912C04C0F0
:100C400016950795F794E7946A95D2F7E628F72862
:100C5000082919293BC0AB2BC9F1C60ED71E662443
:100C60007724430181E090E0A0E0B0E0062E04C0CC
:100C7000880F991FAA1FBB1F0A94D2F70197A109D9
:100C8000B10982239323A423B5230097A105B105BD
:100C900029F0A1E06A2E712C812C912C04C056956C
:100CA0004795379527956A95D2F7262937294829F8
:100CB00059290CC08C159D0534F06C0120E030E002
:100CC00040E050E003C0EE24FF248701E201998157
:100CD000E5018981981709F443C0992339F0E21A94
:100CE000F30A040B150BA801970104C02E193F0944
:100CF000400B510B57FD08C01182D382C28224835E
:100D00003583468357831DC081E08183D382C282AD
:100D100088279927DC01821B930BA40BB50B8483D6
:100D20009583A683B7830DC0220F331F441F551F21
:100D300024833583468357838281938101979383EC
:100D400082832481358146815781DA01C901019767
:100D5000A109B1098F5F9F4FAF4FBF4328F30BC06D
:100D60009183D382C2822E0D3F1D401F511F2483C9
:100D700035834683578383E0808324813581468190
:100D800057815523D4F4C901AA2797FDA095BA2FFE
:100D900081709070A070B0705695479537952795E3
:100DA000822B932BA42BB52B84839583A683B783A7
:100DB000828193810196938382832F0101C0250153
:100DC000C201E0E1CDB7DEB70C94260BA0E2B0E0A3
:100DD000ECEEF6E00C94140B69837A838B839C838E
:100DE0002D833E834F83588709E0E02EF12CEC0ED3
:100DF000FD1EB701CE0101960E94220A8E010F5EF0
:100E00001F4FB801CE0105960E94220A8A8991E0FF
:100E100089278A8BAE01475E5F4FB801C7010E94E8
:100E2000A0050E944209E6E0A0960C94300BA0E2D7
:100E3000B0E0EDE1F7E00C94140B69837A838B83C7
:100E40009C832D833E834F83588789E0E82EF12CC5
:100E5000EC0EFD1EB701CE0101960E94220A8E0102
:100E60000F5E1F4FB801CE0105960E94220AAE0107
:100E7000475E5F4FB801C7010E94A0050E9442096A
:100E8000E6E0A0960C94300BA8E1B0E0EAE4F7E0CD
:100E90000C94100B69837A838B839C832D833E8310
:100EA0004F8358878E01075F1F4FB801CE0101960F
:100EB0000E94220A81E1E82EF12CEC0EFD1EB70102
:100EC000CE0105960E94220A39853230F8F0298930
:100ED000223010F4B70186C08A859A8989278A87CB
:100EE000343011F0323029F4321781F469EC72E0B9
:100EF00079C0243039F41D861E861F86188A1C8608
:100F00001B8604C0223021F484E08987B8016AC0BE
:100F10006B857C858B899C89681B790B7C876B87AB
:100F20002D853E854F8558898D899E89AF89B88DDD
:100F3000281739074A075B0740F4220F331F441F65
:100F4000551F615070407C876B87A12CB12CC12C40
:100F500010E4D12EEE24FF24870160E070E0281712
:100F600039074A075B0740F0EA28FB280C291D29AE
:100F7000281B390B4A0B5B0BD694C794B794A794E4
:100F8000220F331F441F551F6F5F7F4F6F31710555
:100F900031F7D801C7018F779070A070B07080349E
:100FA0009105A105B105B9F4E7FC15C0211531057E
:100FB0004105510581F080E490E0A0E0B0E0E80E4A
:100FC000F91E0A1F1B1F80E89FEFAFEFBFEFE8225B
:100FD000F9220A231B23ED86FE860F87188BBE019C
:100FE000675F7F4FCB010E944209EAE068960C944C
:100FF0002C0BA8E1B0E0EFEFF7E00C94140B698341
:101000007A838B839C832D833E834F83588789E02B
:10101000E82EF12CEC0EFD1EB701CE0101960E94C8
:10102000220A8E010F5E1F4FB801CE0105960E9465
:10103000220A8985823060F08989823048F0B801BF
:10104000C7010E94920A282F332727FD309502C03E
:101050002FEF3FEFC901E6E068960C94300BACE04F
:10106000B0E0E5E3F8E00C94180B69837A838B8396
:101070009C83BE016B5F7F4FCE0101960E94220AC6
:101080008D818230A9F1823098F1843021F48E81F3
:10109000882359F40FC02F81388537FD29C06E8110
:1010A0002F31310564F0662329F020E030E040E084
:1010B00050E822C02FEF3FEF4FEF5FE71DC08EE1FA
:1010C00090E0821B930B29853A854B855C8504C093
:1010D00056954795379527958A95D2F7662361F0FF
:1010E00050954095309521953F4F4F4F5F4F04C02D
:1010F00020E030E040E050E0CA01B901E2E02C9687
:101100000C94340BA8E0B0E0E8E8F8E00C94120B83
:101110007B018C01611571058105910519F482E04F
:1011200089835AC083E089838EE1C82ED12CDC826A
:10113000CB82ED82FE820F831887C801B7010E941F
:10114000F508BC016150704077FF33C0EE27FF27E0
:10115000E61BF70B20E030E040E050E081E090E05B
:10116000A0E0B0E00E2E04C0880F991FAA1FBB1F7D
:101170000A94D2F70197A109B1098E219F21A023DA
:10118000B1230097A105B10521F021E030E040E056
:1011900050E004C016950795F794E794EA95D2F7C6
:1011A0002E293F29402B512B2D833E834F83588777
:1011B0000FC06115710581F0062E04C0EE0CFF1CF6
:1011C000001F111F0A94D2F7ED82FE820F83188749
:1011D000C61AD70ADC82CB821A82CE0101960E94FF
:1011E0004209E8E028960C942E0BEF92FF920F93A1
:1011F0001F939B01AC01203080E0380781E0480755
:1012000080E0580780F42F3F31054105510509F072
:1012100020F4EE24FF24870119C068E0E62EF12CAB
:10122000012D112D13C0203080E0380780E04807E1
:1012300081E0580730F490E1E92EF12C012D112DB9
:1012400005C088E1E82EF12C012D112D80E290E0FF
:10125000A0E0B0E08E199F09A00BB10B04C0569519
:10126000479537952795EA94D2F7F901EF52FD4F4C
:101270002081821B9109A109B1091F910F91FF9053
:10128000EF9008959F92AF92BF92CF92DF92EF922C
:10129000FF920F931F93EE24FF248701FC0124810A
:1012A00035814681578191808081823010F4406180
:1012B000A2C0843009F49BC0823029F420E030E0E1
:1012C00040E050E005C0211531054105510519F4F4
:1012D000E0E0F0E092C0828193816FEF8238960760
:1012E0000CF05AC062E87FEF681B790B6A31710518
:1012F0002CF020E030E040E050E02AC0AA24BB24DB
:10130000650181E090E0A0E0B0E0062E04C0880F07
:10131000991FAA1FBB1F0A94D2F70197A109B1090F
:1013200082239323A423B5230097A105B10529F0B7
:1013300071E0A72EB12CC12CD12C04C05695479535
:10134000379527956A95D2F72A293B294C295D299B
:10135000DA01C9018F779070A070B0708034910568
:10136000A105B10539F427FF09C0205C3F4F4F4F5D
:101370005F4F04C0215C3F4F4F4F5F4F80E090E0D4
:10138000203060E0360760E0460760E4560710F062
:1013900081E090E0FC0123C08038910544F5FC0118
:1013A000E158FF4FDA01C9018F779070A070B070DB
:1013B00080349105A105B10539F427FF09C0205CEF
:1013C0003F4F4F4F5F4F04C0215C3F4F4F4F5F4F28
:1013D00057FF05C05695479537952795319687E075
:1013E00056954795379527958A95D1F706C020E001
:1013F00030E040E050E0EFEFF0E0E22EF32E942FEB
:101400009F77802F8078892B9E2F97959927979586
:101410008F77082F092B9E2F9695812F8078892B07
:101420009794992497948F77182F1929C801B70199
:101430001F910F91FF90EF90DF90CF90BF90AF90F2
:101440009F900895CF93DF93FC01DB0120813181D0
:101450009281492F4F7750E0991F9927991F8381D7
:10146000E82FEE0FE92B6E2F70E0881F8827881F6A
:10147000ED018983EE2371F52115310541055105F3
:1014800011F482E02FC06E577040FD0173836283B8
:1014900067E0220F331F441F551F6A95D1F783E081
:1014A0008C930AC0220F331F441F551FED018A8100
:1014B0009B8101979B838A832030E0E03E07E0E038
:1014C0004E07E0E45E0770F3ED012C833D834E830D
:1014D0005F8325C0EF3F79F42115310541055105A2
:1014E00019F484E08C931BC044FF03C081E08C930B
:1014F00011C01C920FC06F577040ED017B836A834F
:1015000083E08C9387E0220F331F441F551F8A9579
:10151000D1F75064FD012483358346835783DF91DF
:10152000CF910895CF93DF93DC01FB019C91923022
:1015300008F446C08081823008F442C0943049F4F7
:10154000ED016981843079F5818190E0861B9109F4
:101550003CC0843021F0923031F48230A1F181819D
:10156000882371F52AC0ED0169818230E1F0818123
:101570006817C9F4ED012A813B818281938182172A
:1015800093078CF028173907B4F0ED018C819D8109
:10159000AE81BF8124813581468157812817390763
:1015A0004A075B0718F4662341F40AC082179307C1
:1015B000A407B50740F4662319F48FEF9FEF05C029
:1015C00081E090E002C080E090E0DF91CF9108954B
:1015D000991B79E004C0991F961708F0961B881F85
:1015E0007A95C9F780950895AA1BBB1B51E107C0E6
:1015F000AA1FBB1FA617B70710F0A61BB70B881FA3
:10160000991F5A95A9F780959095BC01CD01089531
:101610002F923F924F925F926F927F928F929F9202
:10162000AF92BF92CF92DF92EF92FF920F931F93F0
:10163000CF93DF93CDB7DEB7CA1BDB0B0FB6F894A1
:10164000DEBF0FBECDBF19942A88398848885F84D1
:101650006E847D848C849B84AA84B984C884DF8052
:10166000EE80FD800C811B81AA81B981CE0FD11D36
:101670000FB6F894DEBF0FBECDBFED010895FFCFCA
:101680001B5B3143001B5B324A1B5B48001B5B301A
:10169000006D001B5B00284C2900285829284C2984
:1016A00000285829002849292858290028562900A7
:1016B0002849292856290028492900432849290072
:1016C000440043440043005843004C00584C005829
:1016D000004958005600495600490016021A0221D6
:1016E0000225022C02300237023B02400242024530
:1016F0000247024A024C024F02510254025602595A
:101700000250C3409C102728238813A00FE80384AD
:1017100003F401900164005A00320028000A000915
:1017200000050004000100496E74726F6475636502
:1017300020756E206E756D65726F3A200048657871
:101740003A200042696E3A200000000000000000CC
:10175000000001020203030303040404040404045C
:10176000040505050505050505050505050505052A
:10177000050606060606060606060606060606060A
:1017800006060606060606060606060606060606F9
:1017900006070707070707070707070707070707DA
:1017A00007070707070707070707070707070707C9
:1017B00007070707070707070707070707070707B9
:1017C00007070707070707070707070707070707A9
:1017D000070808080808080808080808080808088A
:1017E0000808080808080808080808080808080879
:1017F0000808080808080808080808080808080869
:101800000808080808080808080808080808080858
:101810000808080808080808080808080808080848
:101820000808080808080808080808080808080838
:101830000808080808080808080808080808080828
:101840000808080808080808080808080808080818
:0218500008008E
:00000001FF
