:100000000C9472000C9493000C9493000C94930045
:100010000C9493000C9493000C9493000C94930014
:100020000C9493000C9493000C9493000C94930004
:100030000C9493000C9493000C9493000C949300F4
:100040000C9493000C9493000C9493000C949300E4
:100050000C9493000C9493000C9493000C949300D4
:100060000C9493000C945B080C9420080C9493005F
:100070000C9493000C9493000C9493000C949300B4
:100080000C9493000C9493000C9493000C949300A4
:100090000C9493000C9493000C9493000C94930094
:1000A0000C9493000C9493000C9493000C94930084
:1000B0000C9493000C9493000C9493000C94930074
:1000C0000C9493000C9493000C9493000C94930064
:1000D0000C9493000C9493000C9493000C94930054
:1000E0000C94930011241FBECFEFD1E2DEBFCDBF31
:1000F00000E00CBF13E0A0E0B2E0EAEBFCE100E0BE
:100100000BBF02C007900D92AA31B107D9F713E0D7
:10011000AAE1B3E001C01D92A63AB107E1F70E943F
:1001200095000C945C0E0C940000CF92EF920F930C
:10013000CF93DF93CDB7DEB7C254D6400FB6F89455
:10014000DEBF0FBECDBF7894CC24C394EE24E394DD
:1001500003E028E040E950ED63E070E080E00E94B9
:100160006D040E94AF071A8219C08A81882F90E01F
:10017000880F991F880F991F9C01220F331F220F90
:10018000331F820F931F9E012F5F3F4F820F931FDC
:10019000FC01759610828A818F5F8A838A818035FF
:1001A00020F380911E0390911F03A0912003B09132
:1001B000210380931A0390931B03A0931C03B09315
:1001C0001D031A8296C18A81882F90E0880F991F9B
:1001D000880F991F9C01220F331F220F331F820F9C
:1001E000931F9E012F5F3F4F820F931FFC01759657
:1001F0008081882309F0E8C08A81882F90E0880FE9
:10020000991F880F991F9C01220F331F220F331F44
:10021000820F931F9E012F5F3F4F820F931FFC01A0
:10022000759681E08083198248C08A81882F90E08A
:10023000880F991F880F991F9C01220F331F220FCF
:10024000331F820F931F9E012F5F3F4F820F931F1B
:10025000FC01729640818981882F90E0880F991F58
:10026000880F991F9C01220F331F220F331F820F0B
:10027000931F9E012F5F3F4F820F931FFC017296C9
:1002800080814817B9F48A81882F90E0880F991FE0
:10029000880F991F9C01220F331F220F331F820FDB
:1002A000931F9E012F5F3F4F820F931FFC01759696
:1002B000108208C089818F5F898399818A8198170C
:1002C00008F4B3CF8A81882F90E0880F991F880F98
:1002D000991F9C01220F331F220F331F820F931F80
:1002E0009E012F5F3F4F820F931FFC017596808107
:1002F000813009F069C080911E0390911F03A09185
:100300002003B0912103282F8A81882F90E0880F45
:10031000991F422F480F8A81882F90E09C01220F5D
:10032000331F220F331FC901880F991F880F991F90
:10033000820F931F9C01CE010396820F931F642F9F
:100340000E94910280911E0390911F03A0912003AF
:10035000B0912103482F8A81282F30E0C901880FEE
:10036000991F880F991F820F931F480F8A81882F2A
:1003700090E09C01220F331F220F331FC901880F09
:10038000991F880F991F820F931F9C01CE0103961E
:10039000820F931F68E00E94DF028A81882F90E01D
:1003A000880F991F880F991F9C01220F331F220F5E
:1003B000331F820F931F9E012F5F3F4F820F931FAA
:1003C000FC01759682E080838A81882F90E0880FF7
:1003D000991F880F991F9C01220F331F220F331F73
:1003E000820F931F9E012F5F3F4F820F931FFC01CF
:1003F00075968081823009F079C08A81882F90E0DB
:100400009C01220F331F220F331FC901880F991F30
:10041000880F991F820F931F9C01CE010396820FB4
:10042000931F0E943B038A81882F90E09C01220F3A
:10043000331F220F331FC901880F991F880F991F7F
:10044000820F931F9C01CE010396820F931F0E947F
:1004500067038A81882F90E0880F991F880F991F62
:100460009C01220F331F220F331F820F931F9E0107
:100470002F5F3F4F820F931FFC0173968081482F9F
:1004800050E08A81882F90E0880F991F880F991F6C
:100490009C01220F331F220F331F820F931F9E01D7
:1004A0002F5F3F4F820F931FFC0174968081882F2E
:1004B00090E09A01281B390BC90184349105B1F4ED
:1004C0008A81882F90E0880F991F880F991F9C01BF
:1004D000220F331F220F331F820F931F9E012F5FA6
:1004E0003F4F820F931FFC01759610828A818F5FA8
:1004F0008A838A81803508F466CE80911E039091AC
:100500001F03A0912003B09121030196A11DB11DED
:1005100080931E0390931F03A0932003B0932103A5
:1005200050CECF93DF93CDB7DEB723970FB6F894B5
:10053000DEBF0FBECDBF9A8389836B838B8193E02F
:10054000692F0E94050E282F8B8196E0692F0E944B
:10055000050E422F6CE00E9407049C01220F331FFE
:10056000220F331FC901880F991F880F991F820F0F
:10057000931F2BE331E0B9010E94110EE981FA814A
:10058000808B8B81282F269526958B8193E0692F70
:100590000E94050E422F6CE00E94070422E230E028
:1005A000B9010E94110EE981FA81818B23960FB661
:1005B000F894DEBF0FBECDBFDF91CF9108950F93AA
:1005C0001F93CF93DF93CDB7DEB725970FB6F8947F
:1005D000DEBF0FBECDBF9B838A836C834D831982A0
:1005E00025C08981082F10E08D81282F269526951A
:1005F0008981882F90E0880F991F880F991F982F65
:100600008D81890F422F6CE00E9407042EE530E0B7
:10061000B9010E94110E282F2F5D8A819B81FC0158
:10062000E00FF11F208389818F5F89838981282FC3
:1006300030E08C81882F90E00197281739078CF2E1
:10064000EA81FB818C81828B8C81882F90E09C01D8
:10065000215030408A819B81FC01E20FF31F108200
:1006600025960FB6F894DEBF0FBECDBFDF91CF91B8
:100670001F910F910895CF93DF93CDB7DEB72297E7
:100680000FB6F894DEBF0FBECDBF9A838983E98190
:10069000FA818189843491F4E981FA8182898150D7
:1006A000E981FA81828BE981FA818289282F30E001
:1006B00089819A81FC01E20FF31F108222960FB606
:1006C000F894DEBF0FBECDBFDF91CF910895CF93D9
:1006D000DF93CDB7DEB724970FB6F894DEBF0FBE19
:1006E000CDBF9C838B831A821982EB81FC81918917
:1006F000EB81FC818289292F281B822F982F915012
:10070000EB81FC818089692F0E94E70780E20E94CB
:10071000F70535C089819A819C012F5F3F4F8B81FE
:100720009C81FC01E20FF31F8081882321F080E28D
:100730000E94BA0703C081E20E94BA07EB81FC81E4
:100740002189EB81FC8192898981392F381B832F84
:10075000922F981BEB81FC818089692F0E94E7070B
:1007600029813A818B819C81FC01E20FF31F8081FA
:100770000E94F70589819A8101969A83898329814C
:100780003A818B819C81FC01E20FF31F80818823D9
:1007900009F6EB81FC8181898F5FEB81FC81818B84
:1007A00024960FB6F894DEBF0FBECDBFDF91CF9178
:1007B0000895CF93DF93CDB7DEB722970FB6F894A5
:1007C000DEBF0FBECDBF9A83898389819A8128E4D9
:1007D00033E0AC01429FC001439F900D529F900DAA
:1007E00011249A83898389819A8101979A838983C5
:1007F00089819A815FEF8F3F9507A9F722960FB6FF
:10080000F894DEBF0FBECDBFDF91CF910895CF9397
:10081000DF93CDB7DEB724970FB6F894DEBF0FBED7
:10082000CDBF8A836B834C8319820BC09C818A81E4
:10083000989F902D11248B81890F8A8389818F5FE6
:1008400089838A81982F96958981891778F38A817F
:10085000282F30E08C81882F90E0A901489F9001DB
:10086000499F300D589F300D11248B81882F90E0C7
:10087000820F931F24960FB6F894DEBF0FBECDBF34
:10088000DF91CF910895CF93DF93CDB7DEB7229755
:100890000FB6F894DEBF0FBECDBF80916203882FE4
:1008A00090E001969C012F73307080916303882F34
:1008B00090E01A8219822817390721F081E090E030
:1008C0009A83898389819A8122960FB6F894DEBF34
:1008D0000FBECDBFDF91CF910895CF92EF920F93CE
:1008E000CF93DF93CDB7DEB763970FB6F894DEBF33
:1008F0000FBECDBF8D834E835F83688779872A873C
:100900000B87EC86CD868D81882F90E0880F991F0C
:10091000880F991F880F991F80549F4F9C838B834A
:100920008D85882329F56E817F81888599850E9430
:100930009F0BDC01CB019C01AD0160E074E284E718
:1009400099E40E94610ADC01CB0120E030E040E83C
:100950005FE3BC01CD010E94030ADC01CB01BC01B5
:10096000CD010E949708DC01CB019A83898324C0C2
:100970006E817F81888599850E949F0BDC01CB0168
:100980009C01AD0160E074E284EF99E40E94610A89
:10099000DC01CB0120E030E040E85FE3BC01CD01A9
:1009A0000E94030ADC01CB01BC01CD010E94970823
:1009B000DC01CB019A8389838B819C81FC01359674
:1009C00089819A81892F992780838B819C81FC0161
:1009D000349689818083EB81FC818081282F8D85ED
:1009E000882F90E0880F991F822BEB81FC818083F8
:1009F0008B819C81DC0111968B819C81FC0131965D
:100A00008081886B8C938A85282F30E03B8B2A8BE2
:100A10008A899B898730910599F12A893B892830F9
:100A200031055CF48A899B898530910589F02A8992
:100A30003B8926303105C1F051C08A899B898830B5
:100A4000910551F12A893B892930310589F146C048
:100A50008B819C81DC0112968B819C81FC013296FA
:100A60008081897F8C933AC08B819C81DC011296B6
:100A70008B819C81FC013296808182608C932EC098
:100A80008B819C81DC0112968B819C81FC013296CA
:100A9000808184608C9322C08B819C81DC011296C2
:100AA0008B819C81FC013296808186608C9316C07C
:100AB0008B819C81DC0112968B819C81FC0132969A
:100AC000808186608C938B819C81DC0111968B8167
:100AD0009C81FC013196808184608C938B85282FCA
:100AE00030E0398B288B888999898130910509F10B
:100AF00028893989223031052CF488899989009711
:100B000061F03AC02889398922303105F1F08889AD
:100B100099898330910529F12FC08B819C81DC015B
:100B200012968B819C81FC01329680818F7C8C9304
:100B300023C08B819C81DC0112968B819C81FC01FE
:100B40003296808180618C9317C08B819C81DC01FF
:100B500012968B819C81FC013296808180628C93FD
:100B60000BC08B819C81DC0112968B819C81FC01E6
:100B70003296808180638C938C85282F30E03F876C
:100B80002E878E859F858130910531F02E853F859A
:100B90002230310569F017C08B819C81DC011296EF
:100BA0008B819C81FC0132968081877F8C930BC066
:100BB0008B819C81DC0112968B819C81FC01329699
:100BC000808188608C93109262031092630310926C
:100BD000A4031092A50363960FB6F894DEBF0FBE70
:100BE000CDBFDF91CF910F91EF90CF900895CF932C
:100BF000DF93CDB7DEB721970FB6F894DEBF0FBEF7
:100C0000CDBF89838091A403882F90E001969C0139
:100C10002F7330708091A503882F90E02817390733
:100C200089F38091A5038F5F8F738093A5038091D3
:100C3000A503882F90E0FC01EC59FC4F898180834B
:100C4000A1ECB0E0E1ECF0E0808180628C93219631
:100C50000FB6F894DEBF0FBECDBFDF91CF910895E0
:100C6000CF93DF93CDB7DEB721970FB6F894DEBFF1
:100C70000FBECDBF0E9443048823E1F78091620339
:100C80008F5F8F738093620380916203882F90E05F
:100C9000FC01EE5DFC4F8081898389810E94F7050C
:100CA0008981882F90E021960FB6F894DEBF0FBEA1
:100CB000CDBFDF91CF910895CF93DF93CDB7DEB74E
:100CC00022970FB6F894DEBF0FBECDBF9A838983FB
:100CD0000BC0E981FA81208189819A8101969A83EA
:100CE0008983822F0E94F705E981FA818081882318
:100CF00081F722960FB6F894DEBF0FBECDBFDF910D
:100D0000CF910895CF93DF93CDB7DEB725970FB678
:100D1000F894DEBF0FBECDBF9D838C838C819D81F7
:100D20009B838A830E94300689833AC089818830F8
:100D3000B9F42C813D818A819B812817390761F0A4
:100D400080E20E94F70589810E94F7058C819D81D0
:100D500001979D838C8321C080E20E94F7051DC00E
:100D60008A819B819C012D5E3F4F8C819D818217E2
:100D7000930750F088E00E94F70580E20E94F70593
:100D800088E00E94F70509C0EC81FD81898180839C
:100D90008C819D8101969D838C830E94300689837E
:100DA00089818D3019F68DE00E94F7058AE00E9456
:100DB000F705EC81FD81108225960FB6F894DEBF11
:100DC0000FBECDBFDF91CF910895CF93DF93CDB705
:100DD000DEB76E970FB6F894DEBF0FBECDBF988F0B
:100DE0008F8B7A8F698F4B8F1A82198289819A81B2
:100DF0009E012D5F3F4F3E8F2D8FED8DFE8DE80FB5
:100E0000F91FFE8FED8F8B8D282F30E0898D9A8D05
:100E1000B9010E94110E8A30910560F08B8D282F48
:100E200030E0898D9A8DB9010E94110EF82FF95C7E
:100E3000FC8F0BC08B8D282F30E0898D9A8DB901E6
:100E40000E94110E282F205D2C8F2C8DED8DFE8D94
:100E5000208389819A8101969A8389838B8D282F9B
:100E600030E0898D9A8DB9010E94110ECB019A8FC5
:100E7000898F898D9A8D009709F0B8CF14C0898128
:100E80009A8101979A83898389819A81FE01339699
:100E9000E80FF91F8081EF89F88D80838F89988D05
:100EA0000196988F8F8B89819A81181619063CF3C9
:100EB000EF89F88D10826E960FB6F894DEBF0FBEE4
:100EC000CDBFDF91CF910895CF93DF93CDB7DEB73C
:100ED00026970FB6F894DEBF0FBECDBF9C838B83E1
:100EE000EB81FC818081882369F11A8219821BC001
:100EF00089819A819C01220F331FC901880F991F94
:100F0000880F991F280F391FEB81FC818081882F62
:100F100090E0820F931FC0979A8389838B819C8175
:100F200001969C838B83EB81FC818081803328F048
:100F3000EB81FC8180818A33D8F289819A819E83FA
:100F40008D8302C01E821D828D819E8126960FB6E2
:100F5000F894DEBF0FBECDBFDF91CF910895CF9340
:100F6000DF93CDB7DEB780E092E00E945C06DF91B0
:100F7000CF910895CF93DF93CDB7DEB721970FB60A
:100F8000F894DEBF0FBECDBF898388E092E00E9457
:100F90005C0689819AE0692F0E94050E805D0E949F
:100FA000F70589819AE0692F0E94050E892F805DDF
:100FB0000E94F7058CE092E00E945C0621960FB635
:100FC000F894DEBF0FBECDBFDF91CF910895CF93D0
:100FD000DF93CDB7DEB726970FB6F894DEBF0FBE0E
:100FE000CDBF8D836E838EE092E00E945C068E8181
:100FF000882F90E04AE0BC01CE0101960E94E506F0
:10100000CE0101960E945C068BE30E94F7058D815C
:10101000882F90E04AE0BC01CE0101960E94E506CF
:10102000CE0101960E945C0688E40E94F705269690
:101030000FB6F894DEBF0FBECDBFDF91CF910895FC
:101040001F920F920FB60F9211248F939F93AF931D
:10105000BF93EF93FF93CF93DF93CDB7DEB790911C
:10106000A4038091A503981741F4A1ECB0E0E1EC52
:10107000F0E080818F7D8C9311C08091A4038F5FFD
:101080008F738093A403A6ECB0E08091A403882F13
:1010900090E0FC01EC59FC4F80818C93DF91CF9163
:1010A000FF91EF91BF91AF919F918F910F900FBEE4
:1010B0000F901F9018951F920F920FB60F92112448
:1010C0002F933F938F939F93EF93FF93CF93DF9350
:1010D000CDB7DEB780916203882F90E001969C0126
:1010E0002F73307080916303882F90E028173907A1
:1010F00089F0809163038F5F8F7380936303809186
:101100006303882F90E0E6ECF0E02081FC01EE5DC7
:10111000FC4F2083DF91CF91FF91EF919F918F91B1
:101120003F912F910F900FBE0F901F901895EF9247
:10113000FF920F931F937B018C0120E030E040E091
:101140005FE40E94160B88237CF020E030E040E052
:101150005FE4C801B7010E94030A0E944C0B605073
:1011600070408040904804C0C801B7010E944C0BF9
:101170001F910F91FF90EF900895A0E0B0E0E3EC95
:10118000F8E00C94270E2C015B01FA01DC019C9124
:10119000923008F432C1EB018881823008F42CC10E
:1011A000943071F4843009F028C1F2019181898171
:1011B000981709F422C111E1412E12E0512E1DC1F0
:1011C000843009F419C18230A9F4923009F015C1B4
:1011D000CA01A20128E0DA010D90AD01EC010992EB
:1011E000CE012150C1F7E5018981E201998189236E
:1011F000818300C1923009F4FFC0E201CA80DB8024
:10120000EB018A819B81E2012C813D814E815F81CE
:10121000EB01EC80FD800E811F81B601681B790B0C
:10122000DB0177FF03C0709561957F4F60327105D8
:101230000CF05DC01A161B065CF56624772443018A
:1012400081E090E0A0E0B0E0062E04C0880F991F76
:10125000AA1FBB1F0A94D2F70197A109B1098E21D9
:101260009F21A023B1230097A105B10529F0B1E08A
:101270006B2E712C812C912C04C016950795F79438
:10128000E7946A95D2F7E628F728082919293BC080
:10129000AB2BC9F1C60ED71E66247724430181E02B
:1012A00090E0A0E0B0E0062E04C0880F991FAA1FAE
:1012B000BB1F0A94D2F70197A109B1098223932396
:1012C000A423B5230097A105B10529F0A1E06A2E5A
:1012D000712C812C912C04C05695479537952795F4
:1012E0006A95D2F726293729482959290CC08C1527
:1012F0009D0534F06C0120E030E040E050E003C098
:10130000EE24FF248701E2019981E5018981981784
:1013100009F443C0992339F0E21AF30A040B150BC0
:10132000A801970104C02E193F09400B510B57FD2E
:1013300008C01182D382C2822483358346835783B7
:101340001DC081E08183D382C28288279927DC0176
:10135000821B930BA40BB50B84839583A683B78361
:101360000DC0220F331F441F551F2483358346832E
:10137000578382819381019793838283248135816E
:1013800046815781DA01C9010197A109B1098F5F2F
:101390009F4FAF4FBF4328F30BC09183D382C282CC
:1013A0002E0D3F1D401F511F2483358346835783D5
:1013B00083E0808324813581468157815523D4F48D
:1013C000C901AA2797FDA095BA2F81709070A070CF
:1013D000B0705695479537952795822B932BA42B64
:1013E000B52B84839583A683B783828193810196ED
:1013F000938382832F0101C02501C201E0E1CDB7B3
:10140000DEB70C94430EA0E2B0E0E9E0FAE00C9401
:10141000310E69837A838B839C832D833E834F8334
:10142000588709E0E02EF12CEC0EFD1EB701CE012D
:1014300001960E943F0D8E010F5E1F4FB801CE0135
:1014400005960E943F0D8A8991E089278A8BAE011B
:10145000475E5F4FB801C7010E94BD080E945F0C44
:10146000E6E0A0960C944D0EA0E2B0E0EAE3FAE0CC
:101470000C94310E69837A838B839C832D833E8306
:101480004F83588789E0E82EF12CEC0EFD1EB70142
:10149000CE0101960E943F0D8E010F5E1F4FB801D5
:1014A000CE0105960E943F0DAE01475E5F4FB80129
:1014B000C7010E94BD080E945F0CE6E0A0960C9454
:1014C0004D0EA8E1B0E0E7E6FAE00C942D0E69833A
:1014D0007A838B839C832D833E834F8358878E0131
:1014E000075F1F4FB801CE0101960E943F0D81E1B9
:1014F000E82EF12CEC0EFD1EB701CE0105960E94E0
:101500003F0D39853230F8F02989223010F4B701C7
:1015100086C08A859A8989278A87343011F03230CB
:1015200029F4321781F461E172E079C0243039F492
:101530001D861E861F86188A1C861B8604C02230C4
:1015400021F484E08987B8016AC06B857C858B892A
:101550009C89681B790B7C876B872D853E854F8521
:1015600058898D899E89AF89B88D281739074A0710
:101570005B0740F4220F331F441F551F615070401A
:101580007C876B87A12CB12CC12C10E4D12EEE24CA
:10159000FF24870160E070E0281739074A075B07DE
:1015A00040F0EA28FB280C291D29281B390B4A0B7F
:1015B0005B0BD694C794B794A794220F331F441F94
:1015C000551F6F5F7F4F6F31710531F7D801C7012C
:1015D0008F779070A070B07080349105A105B1052F
:1015E000B9F4E7FC15C0211531054105510581F01D
:1015F00080E490E0A0E0B0E0E80EF91E0A1F1B1F97
:1016000080E89FEFAFEFBFEFE822F9220A231B2308
:10161000ED86FE860F87188BBE01675F7F4FCB017B
:101620000E945F0CEAE068960C94490EA8E1B0E0D5
:10163000ECE1FBE00C94310E69837A838B839C830D
:101640002D833E834F83588789E0E82EF12CEC0EE2
:10165000FD1EB701CE0101960E943F0D8E010F5E67
:101660001F4FB801CE0105960E943F0D898582303B
:1016700060F08989823048F0B801C7010E94AF0D3F
:10168000282F332727FD309502C02FEF3FEFC901E8
:10169000E6E068960C944D0EACE0B0E0E2E5FBE0CD
:1016A0000C94350E69837A838B839C83BE016B5FB8
:1016B0007F4FCE0101960E943F0D8D818230A9F1AE
:1016C000823098F1843021F48E81882359F40FC040
:1016D0002F81388537FD29C06E812F31310564F0A7
:1016E000662329F020E030E040E050E822C02FEFF0
:1016F0003FEF4FEF5FE71DC08EE190E0821B930B41
:1017000029853A854B855C8504C056954795379564
:1017100027958A95D2F7662361F0509540953095CC
:1017200021953F4F4F4F5F4F04C020E030E040E035
:1017300050E0CA01B901E2E02C960C94510EA8E0E9
:10174000B0E0E5EAFBE00C942F0E7B018C01611503
:1017500071058105910519F482E089835AC083E0FF
:1017600089838EE1C82ED12CDC82CB82ED82FE8271
:101770000F831887C801B7010E94120CBC01615089
:10178000704077FF33C0EE27FF27E61BF70B20E002
:1017900030E040E050E081E090E0A0E0B0E00E2ECC
:1017A00004C0880F991FAA1FBB1F0A94D2F7019784
:1017B000A109B1098E219F21A023B1230097A10582
:1017C000B10521F021E030E040E050E004C0169582
:1017D0000795F794E794EA95D2F72E293F29402BF5
:1017E000512B2D833E834F8358870FC061157105A0
:1017F00081F0062E04C0EE0CFF1C001F111F0A947E
:10180000D2F7ED82FE820F831887C61AD70ADC82D0
:10181000CB821A82CE0101960E945F0CE8E02896E6
:101820000C944B0EEF92FF920F931F939B01AC0110
:10183000203080E0380781E0480780E0580780F4D6
:101840002F3F31054105510509F020F4EE24FF2416
:10185000870119C068E0E62EF12C012D112D13C06F
:10186000203080E0380780E0480781E0580730F4F6
:1018700090E1E92EF12C012D112D05C088E1E82E13
:10188000F12C012D112D80E290E0A0E0B0E08E1946
:101890009F09A00BB10B04C0569547953795279526
:1018A000EA94D2F7F901E75EFD4F2081821B91098E
:1018B000A109B1091F910F91FF90EF9008959F9298
:1018C000AF92BF92CF92DF92EF92FF920F931F934E
:1018D000EE24FF248701FC01248135814681578154
:1018E00091808081823010F44061A2C0843009F47C
:1018F0009BC0823029F420E030E040E050E005C099
:10190000211531054105510519F4E0E0F0E092C0E0
:10191000828193816FEF823896070CF05AC062E89B
:101920007FEF681B790B6A3171052CF020E030E005
:1019300040E050E02AC0AA24BB24650181E090E089
:10194000A0E0B0E0062E04C0880F991FAA1FBB1F9D
:101950000A94D2F70197A109B10982239323A42302
:10196000B5230097A105B10529F071E0A72EB12C90
:10197000C12CD12C04C056954795379527956A956B
:10198000D2F72A293B294C295D29DA01C9018F7731
:101990009070A070B07080349105A105B10539F444
:1019A00027FF09C0205C3F4F4F4F5F4F04C0215CB1
:1019B0003F4F4F4F5F4F80E090E0203060E03607B0
:1019C00060E0460760E4560710F081E090E0FC011B
:1019D00023C08038910544F5FC01E158FF4FDA013E
:1019E000C9018F779070A070B07080349105A10507
:1019F000B10539F427FF09C0205C3F4F4F4F5F4FBF
:101A000004C0215C3F4F4F4F5F4F57FF05C05695B5
:101A1000479537952795319687E0569547953795A1
:101A200027958A95D1F706C020E030E040E050E0ED
:101A3000EFEFF0E0E22EF32E942F9F77802F807847
:101A4000892B9E2F9795992797958F77082F092B8C
:101A50009E2F9695812F8078892B9794992497941F
:101A60008F77182F1929C801B7011F910F91FF9087
:101A7000EF90DF90CF90BF90AF909F900895CF935D
:101A8000DF93FC01DB01208131819281492F4F7767
:101A900050E0991F9927991F8381E82FEE0FE92BBA
:101AA0006E2F70E0881F8827881FED018983EE2341
:101AB00071F5211531054105510511F482E02FC062
:101AC0006E577040FD017383628367E0220F331FFE
:101AD000441F551F6A95D1F783E08C930AC0220FEB
:101AE000331F441F551FED018A819B8101979B8302
:101AF0008A832030E0E03E07E0E04E07E0E45E0746
:101B000070F3ED012C833D834E835F8325C0EF3F4F
:101B100079F4211531054105510519F484E08C93C0
:101B20001BC044FF03C081E08C9311C01C920FC006
:101B30006F577040ED017B836A8383E08C9387E06D
:101B4000220F331F441F551F8A95D1F75064FD01A2
:101B50002483358346835783DF91CF910895CF93B4
:101B6000DF93DC01FB019C91923008F446C0808138
:101B7000823008F442C0943049F4ED016981843028
:101B800079F5818190E0861B91093CC0843021F079
:101B9000923031F48230A1F18181882371F52AC01D
:101BA000ED0169818230E1F081816817C9F4ED01AE
:101BB0002A813B8182819381821793078CF02817B9
:101BC0003907B4F0ED018C819D81AE81BF81248104
:101BD000358146815781281739074A075B0718F472
:101BE000662341F40AC082179307A407B50740F49F
:101BF000662319F48FEF9FEF05C081E090E002C0EB
:101C000080E090E0DF91CF910895991B79E004C0C6
:101C1000991F961708F0961B881F7A95C9F780952B
:101C20000895AA1BBB1B51E107C0AA1FBB1FA61723
:101C3000B70710F0A61BB70B881F991F5A95A9F775
:101C400080959095BC01CD0108952F923F924F92BF
:101C50005F926F927F928F929F92AF92BF92CF923C
:101C6000DF92EF92FF920F931F93CF93DF93CDB745
:101C7000DEB7CA1BDB0B0FB6F894DEBF0FBECDBFBD
:101C800019942A88398848885F846E847D848C847E
:101C90009B84AA84B984C884DF80EE80FD800C8197
:101CA0001B81AA81B981CE0FD11D0FB6F894DEBF7A
:0A1CB0000FBECDBFED010895FFCF78
:101CBA001B5B324A1B5B48001B5B30006D001B5BE1
:101CCA0000000000000000000000010202030303FC
:101CDA0003040404040404040405050505050505B4
:101CEA000505050505050505050606060606060693
:101CFA00060606060606060606060606060606067A
:101D0A000606060606060606060707070707070762
:101D1A000707070707070707070707070707070749
:101D2A000707070707070707070707070707070739
:101D3A000707070707070707070707070707070729
:101D4A000707070707070707070808080808080812
:101D5A0008080808080808080808080808080808F9
:101D6A0008080808080808080808080808080808E9
:101D7A0008080808080808080808080808080808D9
:101D8A0008080808080808080808080808080808C9
:101D9A0008080808080808080808080808080808B9
:101DAA0008080808080808080808080808080808A9
:101DBA000808080808080808080808080808080899
:0A1DCA0008080808080808080800C7
:00000001FF
