:100000000C9472000C9491000C9491000C9491004B
:100010000C9491000C9491000C9491000C9491001C
:100020000C9491000C9491000C9491000C9491000C
:100030000C9491000C9491000C9491000C94830109
:100040000C9491000C9491000C9491000C949100EC
:100050000C9491000C9491000C9491000C94F2007B
:100060000C9491000C94F3050C94B8050C94910039
:100070000C9491000C9491000C9491000C949100BC
:100080000C9491000C9491000C9491000C949100AC
:100090000C9491000C9491000C9491000C9491009C
:1000A0000C9491000C9491000C9491000C9491008C
:1000B0000C9491000C9491000C9491000C9491007C
:1000C0000C9491000C9491000C9491000C9491006C
:1000D0000C9491000C9491000C9491000C9491005C
:1000E0000C94910011241FBECFEFD1E2DEBFCDBF33
:1000F00013E0A0E0B2E0E2EBF8E100E00BBF02C0E9
:1001000007900D92A033B107D9F713E0A0E3B3E055
:1001100001C01D92AA3BB107E1F70E942F060C9483
:10012000580C0C940000CF93DF93CDB7DEB7E6E414
:10013000F0E01082E4E4F0E081E08083E7E4F0E0C6
:1001400089EF8083E5E4F0E083E08083EEE6F0E091
:1001500081E080837894DF91CF910895CF93DF93EE
:10016000CDB7DEB722970FB6F894DEBF0FBECDBF76
:1001700080913003882339F01092300381E090E0C1
:100180009A83898302C01A82198289819A81229670
:100190000FB6F894DEBF0FBECDBFDF91CF910895AB
:1001A000CF93DF93CDB7DEB722970FB6F894DEBFBB
:1001B0000FBECDBF80913103882339F010923103F7
:1001C00081E090E09A83898302C01A821982898132
:1001D0009A8122960FB6F894DEBF0FBECDBFDF9195
:1001E000CF9108951F920F920FB60F9211242F9363
:1001F0003F934F935F936F937F938F939F93AF93AF
:10020000BF93EF93FF93CF93DF93CDB7DEB7A6E411
:10021000B0E0E6E4F0E080818A5F8C938091320365
:1002200090913303A0913403B091350328EE33E06D
:1002300040E050E0BC01CD010E94FF0BDC01CB018E
:100240000097A105B10519F481E080933003DF9197
:10025000CF91FF91EF91BF91AF919F918F917F913E
:100260006F915F914F913F912F910F900FBE0F9023
:100270001F901895CF93DF93CDB7DEB7E2EBF0E098
:100280001082E0EBF0E082E08083E3EBF0E083E0DB
:100290008083E1EBF0E082E08083A6EBB0E0E6EB68
:1002A000F0E0808180668C93E0E7F0E081E080837D
:1002B000DF91CF910895CF93DF93CDB7DEB78091D3
:1002C000320390913303A0913403B0913503BC0104
:1002D000CD01DF91CF910895CF93DF93CDB7DEB7F6
:1002E00021970FB6F894DEBF0FBECDBF198289816A
:1002F0008F5F898321960FB6F894DEBF0FBECDBF06
:10030000DF91CF9108951F920F920FB60F92112493
:100310002F933F934F935F936F937F938F939F930D
:10032000AF93BF93EF93FF93CF93DF93CDB7DEB738
:10033000E2EBF0E08CEF8083809132039091330305
:10034000A0913403B09135030196A11DB11D809396
:10035000320390933303A0933403B0933503809119
:10036000320390913303A0913403B091350320E11F
:1003700037E240E050E0BC01CD010E94FF0BDC0100
:10038000CB010097A105B10519F481E080933103F9
:10039000DF91CF91FF91EF91BF91AF919F918F919D
:1003A0007F916F915F914F913F912F910F900FBE71
:1003B0000F901F901895CF93DF93CDB7DEB722979C
:1003C0000FB6F894DEBF0FBECDBF80917603882FA5
:1003D00090E001969C012F73307080917703882FF5
:1003E00090E01A8219822817390721F081E090E005
:1003F0009A83898389819A8122960FB6F894DEBF09
:100400000FBECDBFDF91CF910895CF92EF920F93A2
:10041000CF93DF93CDB7DEB763970FB6F894DEBF07
:100420000FBECDBF8D834E835F83688779872A8710
:100430000B87EC86CD868D81882F90E0880F991FE1
:10044000880F991F880F991F80549F4F9C838B831F
:100450008D85882329F56E817F81888599850E9405
:100460007909DC01CB019C01AD0160E074E284E715
:1004700099E40E943B08DC01CB0120E030E040E839
:100480005FE3BC01CD010E94DD07DC01CB01BC01B3
:10049000CD010E947106DC01CB019A83898324C0BF
:1004A0006E817F81888599850E947909DC01CB0165
:1004B0009C01AD0160E074E284EF99E40E943B0886
:1004C000DC01CB0120E030E040E85FE3BC01CD017E
:1004D0000E94DD07DC01CB01BC01CD010E94710649
:1004E000DC01CB019A8389838B819C81FC01359649
:1004F00089819A81892F992780838B819C81FC0136
:10050000349689818083EB81FC818081282F8D85C1
:10051000882F90E0880F991F822BEB81FC818083CC
:100520008B819C81DC0111968B819C81FC01319631
:100530008081886B8C938A85282F30E03B8B2A8BB7
:100540008A899B898730910599F12A893B892830CE
:1005500031055CF48A899B898530910589F02A8967
:100560003B8926303105C1F051C08A899B8988308A
:10057000910551F12A893B892930310589F146C01D
:100580008B819C81DC0112968B819C81FC013296CF
:100590008081897F8C933AC08B819C81DC0112968B
:1005A0008B819C81FC013296808182608C932EC06D
:1005B0008B819C81DC0112968B819C81FC0132969F
:1005C000808184608C9322C08B819C81DC01129697
:1005D0008B819C81FC013296808186608C9316C051
:1005E0008B819C81DC0112968B819C81FC0132966F
:1005F000808186608C938B819C81DC0111968B813C
:100600009C81FC013196808184608C938B85282F9E
:1006100030E0398B288B888999898130910509F1DF
:1006200028893989223031052CF4888999890097E5
:1006300061F03AC02889398922303105F1F0888982
:1006400099898330910529F12FC08B819C81DC0130
:1006500012968B819C81FC01329680818F7C8C93D9
:1006600023C08B819C81DC0112968B819C81FC01D3
:100670003296808180618C9317C08B819C81DC01D4
:1006800012968B819C81FC013296808180628C93D2
:100690000BC08B819C81DC0112968B819C81FC01BB
:1006A0003296808180638C938C85282F30E03F8741
:1006B0002E878E859F858130910531F02E853F856F
:1006C0002230310569F017C08B819C81DC011296C4
:1006D0008B819C81FC0132968081877F8C930BC03B
:1006E0008B819C81DC0112968B819C81FC0132966E
:1006F000808188608C931092760310927703109219
:10070000B8031092B90363960FB6F894DEBF0FBE1C
:10071000CDBFDF91CF910F91EF90CF900895CF9300
:10072000DF93CDB7DEB721970FB6F894DEBF0FBECB
:10073000CDBF89838091B803882F90E001969C01FA
:100740002F7330708091B903882F90E028173907F4
:1007500089F38091B9038F5F8F738093B903809180
:10076000B903882F90E0FC01E858FC4F8981808311
:10077000A1ECB0E0E1ECF0E0808180628C93219606
:100780000FB6F894DEBF0FBECDBFDF91CF910895B5
:10079000CF93DF93CDB7DEB721970FB6F894DEBFC6
:1007A0000FBECDBF0E94DB018823E1F78091760365
:1007B0008F5F8F738093760380917603882F90E00C
:1007C000FC01EA5CFC4F8081898389810E948F0350
:1007D0008981882F90E021960FB6F894DEBF0FBE76
:1007E000CDBFDF91CF910895CF93DF93CDB7DEB723
:1007F00022970FB6F894DEBF0FBECDBF9A838983D0
:100800000BC0E981FA81208189819A8101969A83BE
:100810008983822F0E948F03E981FA818081882356
:1008200081F722960FB6F894DEBF0FBECDBFDF91E1
:10083000CF910895CF93DF93CDB7DEB725970FB64D
:10084000F894DEBF0FBECDBF9D838C838C819D81CC
:100850009B838A830E94C80389833AC08981883038
:10086000B9F42C813D818A819B812817390761F079
:1008700080E20E948F0389810E948F038C819D8179
:1008800001979D838C8321C080E20E948F031DC04D
:100890008A819B819C012D5E3F4F8C819D818217B7
:1008A000930750F088E00E948F0380E20E948F033C
:1008B00088E00E948F0309C0EC81FD8189818083DB
:1008C0008C819D8101969D838C830E94C8038983BE
:1008D00089818D3019F68DE00E948F038AE00E9495
:1008E0008F03EC81FD81108225960FB6F894DEBF50
:1008F0000FBECDBFDF91CF910895CF93DF93CDB7DA
:10090000DEB76E970FB6F894DEBF0FBECDBF988FDF
:100910008F8B7A8F698F4B8F1A82198289819A8186
:100920009E012D5F3F4F3E8F2D8FED8DFE8DE80F89
:10093000F91FFE8FED8F8B8D282F30E0898D9A8DDA
:10094000B9010E94EB0B8A30910560F08B8D282F46
:1009500030E0898D9A8DB9010E94EB0BF82FF95C7C
:10096000FC8F0BC08B8D282F30E0898D9A8DB901BB
:100970000E94EB0B282F205D2C8F2C8DED8DFE8D92
:10098000208389819A8101969A8389838B8D282F70
:1009900030E0898D9A8DB9010E94EB0BCB019A8FC3
:1009A000898F898D9A8D009709F0B8CF14C08981FD
:1009B0009A8101979A83898389819A81FE0133966E
:1009C000E80FF91F8081EF89F88D80838F89988DDA
:1009D0000196988F8F8B89819A81181619063CF39E
:1009E000EF89F88D10826E960FB6F894DEBF0FBEB9
:1009F000CDBFDF91CF910895CF93DF93CDB7DEB711
:100A000026970FB6F894DEBF0FBECDBF9C838B83B5
:100A1000EB81FC818081882369F11A8219821BC0D5
:100A200089819A819C01220F331FC901880F991F68
:100A3000880F991F280F391FEB81FC818081882F37
:100A400090E0820F931FC0979A8389838B819C814A
:100A500001969C838B83EB81FC818081803328F01D
:100A6000EB81FC8180818A33D8F289819A819E83CF
:100A70008D8302C01E821D828D819E8126960FB6B7
:100A8000F894DEBF0FBECDBFDF91CF910895CF9315
:100A9000DF93CDB7DEB780E092E00E94F403DF91F0
:100AA000CF910895CF93DF93CDB7DEB721970FB6DF
:100AB000F894DEBF0FBECDBF898388E092E00E942C
:100AC000F40389819AE0692F0E94DF0B805D0E9408
:100AD0008F0389819AE0692F0E94DF0B892F805D47
:100AE0000E948F038CE092E00E94F40321960FB6DF
:100AF000F894DEBF0FBECDBFDF91CF910895CF93A5
:100B0000DF93CDB7DEB726970FB6F894DEBF0FBEE2
:100B1000CDBF8D836E838EE092E00E94F4038E81C0
:100B2000882F90E04AE0BC01CE0101960E947D042E
:100B3000CE0101960E94F4038BE30E948F038D8106
:100B4000882F90E04AE0BC01CE0101960E947D040E
:100B5000CE0101960E94F40388E40E948F0326963A
:100B60000FB6F894DEBF0FBECDBFDF91CF910895D1
:100B70001F920F920FB60F9211248F939F93AF93F2
:100B8000BF93EF93FF93CF93DF93CDB7DEB79091F1
:100B9000B8038091B903981741F4A1ECB0E0E1ECFF
:100BA000F0E080818F7D8C9311C08091B8038F5FBE
:100BB0008F738093B803A6ECB0E08091B803882FC0
:100BC00090E0FC01E858FC4F80818C93DF91CF913D
:100BD000FF91EF91BF91AF919F918F910F900FBEB9
:100BE0000F901F9018951F920F920FB60F9211241D
:100BF0002F933F938F939F93EF93FF93CF93DF9325
:100C0000CDB7DEB780917603882F90E001969C01E6
:100C10002F73307080917703882F90E02817390761
:100C200089F0809177038F5F8F7380937703809132
:100C30007703882F90E0E6ECF0E02081FC01EA5C8D
:100C4000FC4F2083DF91CF91FF91EF919F918F9186
:100C50003F912F910F900FBE0F901F901895CF923C
:100C6000EF920F93CF93DF93CDB7DEB70E94630669
:100C7000CC24EE246894E1F803E028E040E950ED4C
:100C800063E070E080E00E9405020E9493000E94F1
:100C90003A010E94AE00882321F081E192E00E9497
:100CA000F4030E94D0008823A1F3889A64E08AE0CC
:100CB0000E947F0580E20E9452058DE192E00E9431
:100CC000F4038898E6CFCF93DF93CDB7DEB7E0E3A8
:100CD000F0E08FEF8083E1E3F0E01082DF91CF91CD
:100CE0000895EF92FF920F931F937B018C0120E0F8
:100CF00030E040E05FE40E94F00888237CF020E0D0
:100D000030E040E05FE4C801B7010E94DD070E94C7
:100D10002609605070408040904804C0C801B70167
:100D20000E9426091F910F91FF90EF900895A0E077
:100D3000B0E0EDE9F6E00C94230C2C015B01FA0124
:100D4000DC019C91923008F432C1EB018881823041
:100D500008F42CC1943071F4843009F028C1F201F8
:100D600091818981981709F422C117E2412E12E07E
:100D7000512E1DC1843009F419C18230A9F492307A
:100D800009F015C1CA01A20128E0DA010D90AD01F8
:100D9000EC010992CE012150C1F7E5018981E20100
:100DA00099818923818300C1923009F4FFC0E20157
:100DB000CA80DB80EB018A819B81E2012C813D812D
:100DC0004E815F81EB01EC80FD800E811F81B601B9
:100DD000681B790BDB0177FF03C0709561957F4F2E
:100DE000603271050CF05DC01A161B065CF56624B6
:100DF0007724430181E090E0A0E0B0E0062E04C03B
:100E0000880F991FAA1FBB1F0A94D2F70197A10947
:100E1000B1098E219F21A023B1230097A105B1051F
:100E200029F0B1E06B2E712C812C912C04C0169509
:100E30000795F794E7946A95D2F7E628F7280829EA
:100E400019293BC0AB2BC9F1C60ED71E66247724E7
:100E5000430181E090E0A0E0B0E0062E04C0880FDE
:100E6000991FAA1FBB1F0A94D2F70197A109B109C4
:100E700082239323A423B5230097A105B10529F06C
:100E8000A1E06A2E712C812C912C04C056954795B7
:100E9000379527956A95D2F7262937294829592960
:100EA0000CC08C159D0534F06C0120E030E040E072
:100EB00050E003C0EE24FF248701E2019981E5019F
:100EC0008981981709F443C0992339F0E21AF30A8B
:100ED000040B150BA801970104C02E193F09400B04
:100EE000510B57FD08C01182D382C28224833583FF
:100EF000468357831DC081E08183D382C2828827C5
:100F00009927DC01821B930BA40BB50B848395837B
:100F1000A683B7830DC0220F331F441F551F2483A0
:100F2000358346835783828193810197938382839C
:100F30002481358146815781DA01C9010197A109D0
:100F4000B1098F5F9F4FAF4FBF4328F30BC0918311
:100F5000D382C2822E0D3F1D401F511F2483358333
:100F60004683578383E0808324813581468157817E
:100F70005523D4F4C901AA2797FDA095BA2F8170F3
:100F80009070A070B0705695479537952795822B35
:100F9000932BA42BB52B84839583A683B78382815F
:100FA00093810196938382832F0101C02501C201A1
:100FB000E0E1CDB7DEB70C943F0CA0E2B0E0E3EE89
:100FC000F7E00C942D0C69837A838B839C832D83AB
:100FD0003E834F83588709E0E02EF12CEC0EFD1E76
:100FE000B701CE0101960E94190B8E010F5E1F4FB3
:100FF000B801CE0105960E94190B8A8991E08927D4
:101000008A8BAE01475E5F4FB801C7010E94970609
:101010000E94390AE6E0A0960C94490CA0E2B0E0E8
:10102000E4E1F8E00C942D0C69837A838B839C8334
:101030002D833E834F83588789E0E82EF12CEC0EF8
:10104000FD1EB701CE0101960E94190B8E010F5EA5
:101050001F4FB801CE0105960E94190BAE01475EE5
:101060005F4FB801C7010E9497060E94390AE6E067
:10107000A0960C94490CA8E1B0E0E1E4F8E00C94EF
:10108000290C69837A838B839C832D833E834F83D2
:1010900058878E01075F1F4FB801CE0101960E944D
:1010A000190B81E1E82EF12CEC0EFD1EB701CE01EB
:1010B00005960E94190B39853230F8F029892230C3
:1010C00010F4B70186C08A859A8989278A873430C7
:1010D00011F0323029F4321781F467E272E079C0FE
:1010E000243039F41D861E861F86188A1C861B86AE
:1010F00004C0223021F484E08987B8016AC06B857E
:101100007C858B899C89681B790B7C876B872D85F7
:101110003E854F8558898D899E89AF89B88D28175E
:1011200039074A075B0740F4220F331F441F551F3E
:10113000615070407C876B87A12CB12CC12C10E4CE
:10114000D12EEE24FF24870160E070E028173907D4
:101150004A075B0740F0EA28FB280C291D29281BB9
:10116000390B4A0B5B0BD694C794B794A794220F04
:10117000331F441F551F6F5F7F4F6F31710531F76C
:10118000D801C7018F779070A070B070803491053E
:10119000A105B105B9F4E7FC15C0211531054105DC
:1011A000510581F080E490E0A0E0B0E0E80EF91E87
:1011B0000A1F1B1F80E89FEFAFEFBFEFE822F92265
:1011C0000A231B23ED86FE860F87188BBE01675FFF
:1011D0007F4FCB010E94390AEAE068960C94450CD7
:1011E000A8E1B0E0E6EFF8E00C942D0C69837A8377
:1011F0008B839C832D833E834F83588789E0E82E21
:10120000F12CEC0EFD1EB701CE0101960E94190BC8
:101210008E010F5E1F4FB801CE0105960E94190B7B
:101220008985823060F08989823048F0B801C70131
:101230000E94890B282F332727FD309502C02FEFFE
:101240003FEFC901E6E068960C94490CACE0B0E0D1
:10125000ECE2F9E00C94310C69837A838B839C83F4
:10126000BE016B5F7F4FCE0101960E94190B8D81ED
:101270008230A9F1823098F1843021F48E81882364
:1012800059F40FC02F81388537FD29C06E812F3169
:10129000310564F0662329F020E030E040E050E8BA
:1012A00022C02FEF3FEF4FEF5FE71DC08EE190E0D0
:1012B000821B930B29853A854B855C8504C0569526
:1012C0004795379527958A95D2F7662361F0509513
:1012D0004095309521953F4F4F4F5F4F04C020E020
:1012E00030E040E050E0CA01B901E2E02C960C94F5
:1012F0004D0CA8E0B0E0EFE7F9E00C942B0C7B017B
:101300008C01611571058105910519F482E08983CD
:101310005AC083E089838EE1C82ED12CDC82CB8237
:10132000ED82FE820F831887C801B7010E94EC0985
:10133000BC016150704077FF33C0EE27FF27E61BEA
:10134000F70B20E030E040E050E081E090E0A0E0EA
:10135000B0E00E2E04C0880F991FAA1FBB1F0A946D
:10136000D2F70197A109B1098E219F21A023B123B2
:101370000097A105B10521F021E030E040E050E008
:1013800004C016950795F794E794EA95D2F72E29AD
:101390003F29402B512B2D833E834F8358870FC00D
:1013A0006115710581F0062E04C0EE0CFF1C001FB4
:1013B000111F0A94D2F7ED82FE820F831887C61A96
:1013C000D70ADC82CB821A82CE0101960E94390AAA
:1013D000E8E028960C94470CEF92FF920F931F932E
:1013E0009B01AC01203080E0380781E0480780E0B5
:1013F000580780F42F3F31054105510509F020F4CD
:10140000EE24FF24870119C068E0E62EF12C012D9F
:10141000112D13C0203080E0380780E0480781E0BC
:10142000580730F490E1E92EF12C012D112D05C063
:1014300088E1E82EF12C012D112D80E290E0A0E052
:10144000B0E08E199F09A00BB10B04C056954795CB
:1014500037952795EA94D2F7F901E15DFD4F208198
:10146000821B9109A109B1091F910F91FF90EF9083
:1014700008959F92AF92BF92CF92DF92EF92FF9228
:101480000F931F93EE24FF248701FC0124813581F3
:101490004681578191808081823010F44061A2C0E2
:1014A000843009F49BC0823029F420E030E040E031
:1014B00050E005C0211531054105510519F4E0E062
:1014C000F0E092C0828193816FEF823896070CF032
:1014D0005AC062E87FEF681B790B6A3171052CF006
:1014E00020E030E040E050E02AC0AA24BB2465019F
:1014F00081E090E0A0E0B0E0062E04C0880F991FC4
:10150000AA1FBB1F0A94D2F70197A109B109822330
:101510009323A423B5230097A105B10529F071E019
:10152000A72EB12CC12CD12C04C0569547953795C8
:1015300027956A95D2F72A293B294C295D29DA019A
:10154000C9018F779070A070B07080349105A105AB
:10155000B10539F427FF09C0205C3F4F4F4F5F4F63
:1015600004C0215C3F4F4F4F5F4F80E090E0203040
:1015700060E0360760E0460760E4560710F081E05F
:1015800090E0FC0123C08038910544F5FC01E1584E
:10159000FF4FDA01C9018F779070A070B07080346E
:1015A0009105A105B10539F427FF09C0205C3F4F23
:1015B0004F4F5F4F04C0215C3F4F4F4F5F4F57FF6E
:1015C00005C05695479537952795319687E05695EE
:1015D0004795379527958A95D1F706C020E030E0EA
:1015E00040E050E0EFEFF0E0E22EF32E942F9F77F3
:1015F000802F8078892B9E2F9795992797958F77A5
:10160000082F092B9E2F9695812F8078892B9794F0
:10161000992497948F77182F1929C801B7011F9122
:101620000F91FF90EF90DF90CF90BF90AF909F9081
:101630000895CF93DF93FC01DB01208131819281FA
:10164000492F4F7750E0991F9927991F8381E82FE1
:10165000EE0FE92B6E2F70E0881F8827881FED01A1
:101660008983EE2371F5211531054105510511F4EA
:1016700082E02FC06E577040FD017383628367E084
:10168000220F331F441F551F6A95D1F783E08C93B7
:101690000AC0220F331F441F551FED018A819B8111
:1016A00001979B838A832030E0E03E07E0E04E070D
:1016B000E0E45E0770F3ED012C833D834E835F838E
:1016C00025C0EF3F79F4211531054105510519F485
:1016D00084E08C931BC044FF03C081E08C9311C055
:1016E0001C920FC06F577040ED017B836A8383E0CB
:1016F0008C9387E0220F331F441F551F8A95D1F723
:101700005064FD012483358346835783DF91CF9155
:101710000895CF93DF93DC01FB019C91923008F494
:1017200046C08081823008F442C0943049F4ED0113
:101730006981843079F5818190E0861B91093CC0F4
:10174000843021F0923031F48230A1F181818823FC
:1017500071F52AC0ED0169818230E1F0818168175D
:10176000C9F4ED012A813B8182819381821793071D
:101770008CF028173907B4F0ED018C819D81AE8182
:10178000BF812481358146815781281739074A074F
:101790005B0718F4662341F40AC082179307A40775
:1017A000B50740F4662319F48FEF9FEF05C081E081
:1017B00090E002C080E090E0DF91CF910895991B06
:1017C00079E004C0991F961708F0961B881F7A9538
:1017D000C9F780950895AA1BBB1B51E107C0AA1F3A
:1017E000BB1FA617B70710F0A61BB70B881F991FC2
:1017F0005A95A9F780959095BC01CD010895A1E275
:101800001A2EAA1BBB1BFD010DC0AA1FBB1FEE1F7A
:10181000FF1FA217B307E407F50720F0A21BB30BC5
:10182000E40BF50B661F771F881F991F1A9469F741
:1018300060957095809590959B01AC01BD01CF019D
:1018400008952F923F924F925F926F927F928F9264
:101850009F92AF92BF92CF92DF92EF92FF920F933F
:101860001F93CF93DF93CDB7DEB7CA1BDB0B0FB649
:10187000F894DEBF0FBECDBF09942A883988488806
:101880005F846E847D848C849B84AA84B984C8849C
:10189000DF80EE80FD800C811B81AA81B981CE0F93
:1018A000D11D0FB6F894DEBF0FBECDBFED01089578
:0218B000FFCF68
:1018B2001B5B324A1B5B48001B5B30006D001B5BED
:1018C200003120736567756E646F0A0D00312073F5
:1018D2006567756E646F0000000000000000000084
:1018E20001020203030303040404040404040405C0
:1018F2000505050505050505050505050505050695
:101902000606060606060606060606060606060675
:101912000606060606060606060606060606060764
:101922000707070707070707070707070707070745
:101932000707070707070707070707070707070735
:101942000707070707070707070707070707070725
:101952000707070707070707070707070707070814
:1019620008080808080808080808080808080808F5
:1019720008080808080808080808080808080808E5
:1019820008080808080808080808080808080808D5
:1019920008080808080808080808080808080808C5
:1019A20008080808080808080808080808080808B5
:1019B20008080808080808080808080808080808A5
:1019C2000808080808080808080808080808080895
:1019D200080808080808080808080808080808008D
:00000001FF
