:100000000C9472000C9491000C9491000C9491004B
:100010000C9491000C9491000C9491000C9491001C
:100020000C9491000C9491000C9491000C9491000C
:100030000C9491000C94CE060C9491000C949100B9
:100040000C9491000C9491000C9491000C949100EC
:100050000C9491000C9491000C9491000C94D0009D
:100060000C9491000C942E060C94F3050C949100C2
:100070000C9491000C9491000C9491000C949100BC
:100080000C9491000C9491000C9491000C949100AC
:100090000C9491000C9491000C9491000C9491009C
:1000A0000C9491000C9491000C9491000C9491008C
:1000B0000C9491000C9491000C9491000C9491007C
:1000C0000C9491000C9491000C9491000C9491006C
:1000D0000C9491000C9491000C9491000C9491005C
:1000E0000C94910011241FBECFEFD1E2DEBFCDBF33
:1000F00013E0A0E0B2E0EAEAF1E200E00BBF02C0E8
:1001000007900D92AA32B107D9F714E0AAE2B3E042
:1001100001C01D92AA37B107E1F70E94EA060C94CC
:10012000D4100C940000CF93DF93CDB7DEB7E6E494
:10013000F0E01082E4E4F0E081E08083E7E4F0E0C6
:1001400089EF8083E5E4F0E083E08083EEE6F0E091
:1001500081E080837894DF91CF910895CF93DF93EE
:10016000CDB7DEB722970FB6F894DEBF0FBECDBF76
:1001700080912A03882339F010922A0381E090E0CD
:100180009A83898302C01A82198289819A81229670
:100190000FB6F894DEBF0FBECDBFDF91CF910895AB
:1001A0001F920F920FB60F9211242F933F934F93EC
:1001B0005F936F937F938F939F93AF93BF93EF93CF
:1001C000FF93CF93DF93CDB7DEB72197DEBFCDBFCF
:1001D000A6E4B0E0E6E4F0E080818A5F8C93809151
:1001E0002B0390912C03A0912D03B0912E03019627
:1001F000A11DB11D80932B0390932C03A0932D037D
:10020000B0932E0380912B0390912C03A0912D038A
:10021000B0912E0328EE33E040E050E0BC01CD0168
:100220000E947B10DC01CB010097A105B10519F4F8
:1002300081E080932A0319821EC08981282F30E033
:10024000C901880F991F820F931F880F991FFC0106
:10025000E65CFC4F8081482F4150C901880F991FEF
:10026000820F931F880F991FFC01E65CFC4F4083AF
:1002700089818F5F898389818E31F8F22196F89484
:10028000DEBFCDBFDF91CF91FF91EF91BF91AF91D5
:100290009F918F917F916F915F914F913F912F919E
:1002A0000F900FBE0F901F901895CF93DF93CDB78F
:1002B000DEB780912B0390912C03A0912D03B09178
:1002C0002E03BC01CD01DF91CF910895CF93DF9331
:1002D000CDB7DEB726970FB6F894DEBF0FBECDBF01
:1002E0009E838D8380912B0390912C03A0912D03ED
:1002F000B0912E0389839A83AB83BC8320912B0317
:1003000030912C0340912D0350912E0389819A81C5
:10031000AB81BC81281B390B4A0B5B0B8D819E8105
:10032000CC01A0E0B0E0281739074A075B0730F39B
:1003300026960FB6F894DEBF0FBECDBFDF91CF91EA
:100340000895EF92FF920F931F93CF93DF93CDB752
:10035000DEB728970FB6F894DEBF0FBECDBF9E83E1
:100360008D8378876F8380912B0390912C03A091CC
:100370002D03B0912E0389839A83AB83BC8303C082
:10038000ED81FE81099520912B0330912C03409142
:100390002D0350912E0389819A81AB81BC817C0110
:1003A0008D01E21AF30A040B150BA80197018F8146
:1003B0009885CC01A0E0B0E0281739074A075B0711
:1003C000F8F228960FB6F894DEBF0FBECDBFDF91CE
:1003D000CF911F910F91FF90EF900895CF93DF93EE
:1003E000CDB7DEB724970FB6F894DEBF0FBECDBFF2
:1003F0009A8389837C836B8309C00E94AE00882323
:1004000029F08B819C8101979C838B838B819C81BC
:10041000009799F7E981FA81099524960FB6F89427
:10042000DEBF0FBECDBFDF91CF910895CF93DF9395
:10043000CDB7DEB722970FB6F894DEBF0FBECDBFA3
:1004400080912904882F90E001969C012F733070D1
:1004500080912A04882F90E01A8219822817390780
:1004600021F081E090E09A83898389819A812296A4
:100470000FB6F894DEBF0FBECDBFDF91CF910895C8
:10048000CF92EF920F93CF93DF93CDB7DEB7639701
:100490000FB6F894DEBF0FBECDBF8D834E835F8352
:1004A000688779872A870B87EC86CD868D81882F90
:1004B00090E0880F991F880F991F880F991F80540B
:1004C0009F4F9C838B838D85882329F56E817F8147
:1004D000888599850E94D60DDC01CB019C01AD0178
:1004E00060E074E284E799E40E94980CDC01CB019F
:1004F00020E030E040E85FE3BC01CD010E943A0C0F
:10050000DC01CB01BC01CD010E94CE0ADC01CB0194
:100510009A83898324C06E817F81888599850E9412
:10052000D60DDC01CB019C01AD0160E074E284EFEB
:1005300099E40E94980CDC01CB0120E030E040E817
:100540005FE3BC01CD010E943A0CDC01CB01BC0190
:10055000CD010E94CE0ADC01CB019A8389838B8175
:100560009C81FC01359689819A81892F9927808306
:100570008B819C81FC01349689818083EB81FC8195
:100580008081282F8D85882F90E0880F991F822BDE
:10059000EB81FC8180838B819C81DC0111968B81B6
:1005A0009C81FC0131968081886B8C938A85282FF1
:1005B00030E03B8B2A8B8A899B898730910599F1A2
:1005C0002A893B89283031055CF48A899B898530EA
:1005D000910589F02A893B8926303105C1F051C047
:1005E0008A899B898830910551F12A893B89293074
:1005F000310589F146C08B819C81DC0112968B818B
:100600009C81FC0132968081897F8C933AC08B81DA
:100610009C81DC0112968B819C81FC013296808149
:1006200082608C932EC08B819C81DC0112968B8121
:100630009C81FC013296808184608C9322C08B81E6
:100640009C81DC0112968B819C81FC013296808119
:1006500086608C9316C08B819C81DC0112968B8105
:100660009C81FC013296808186608C938B819C8179
:10067000DC0111968B819C81FC0131968081846024
:100680008C938B85282F30E0398B288B888999892A
:100690008130910509F128893989223031052CF4FE
:1006A00088899989009761F03AC028893989223070
:1006B0003105F1F0888999898330910529F12FC09E
:1006C0008B819C81DC0112968B819C81FC0132968E
:1006D00080818F7C8C9323C08B819C81DC0112965E
:1006E0008B819C81FC013296808180618C9317C044
:1006F0008B819C81DC0112968B819C81FC0132965E
:10070000808180628C930BC08B819C81DC0112966E
:100710008B819C81FC013296808180638C938C85D7
:10072000282F30E03F872E878E859F858130910569
:1007300031F02E853F852230310569F017C08B815D
:100740009C81DC0112968B819C81FC013296808118
:10075000877F8C930BC08B819C81DC0112968B81EF
:100760009C81FC013296808188608C9310922904D0
:1007700010922A0410926B0410926C0463960FB6C8
:10078000F894DEBF0FBECDBFDF91CF910F91EF90F8
:10079000CF900895CF93DF93CDB7DEB721970FB6F3
:1007A000F894DEBF0FBECDBF898380916B04882F84
:1007B00090E001969C012F73307080916C04882F1B
:1007C00090E02817390789F380916C048F5F8F734D
:1007D00080936C0480916C04882F90E0FC01E55DAF
:1007E000FB4F89818083A1ECB0E0E1ECF0E08081F7
:1007F00080628C9321960FB6F894DEBF0FBECDBFFA
:10080000DF91CF910895CF93DF93CDB7DEB72197D6
:100810000FB6F894DEBF0FBECDBF0E94160288232C
:10082000E1F7809129048F5F8F7380932904809171
:100830002904882F90E0FC01E751FC4F80818983D7
:1008400089810E94CA038981882F90E021960FB682
:10085000F894DEBF0FBECDBFDF91CF910895CF9347
:10086000DF93CDB7DEB722970FB6F894DEBF0FBE89
:10087000CDBF9A8389830BC0E981FA812081898168
:100880009A8101969A838983822F0E94CA03E98103
:10089000FA818081882381F722960FB6F894DEBF13
:1008A0000FBECDBFDF91CF910895CF93DF93CDB72A
:1008B000DEB725970FB6F894DEBF0FBECDBF9D8380
:1008C0008C838C819D819B838A830E94030489830E
:1008D0003AC089818830B9F42C813D818A819B811D
:1008E0002817390761F080E20E94CA0389810E94BB
:1008F000CA038C819D8101979D838C8321C080E2F6
:100900000E94CA031DC08A819B819C012D5E3F4FBE
:100910008C819D818217930750F088E00E94CA0362
:1009200080E20E94CA0388E00E94CA0309C0EC81E9
:10093000FD81898180838C819D8101969D838C833B
:100940000E940304898389818D3019F68DE00E940D
:10095000CA038AE00E94CA03EC81FD8110822596B9
:100960000FB6F894DEBF0FBECDBFDF91CF910895D3
:10097000CF93DF93CDB7DEB76E970FB6F894DEBF97
:100980000FBECDBF988F8F8B7A8F698F4B8F1A8256
:10099000198289819A819E012D5F3F4F3E8F2D8F55
:1009A000ED8DFE8DE80FF91FFE8FED8F8B8D282FBB
:1009B00030E0898D9A8DB9010E9467108A309105C7
:1009C00060F08B8D282F30E0898D9A8DB9010E94BF
:1009D0006710F82FF95CFC8F0BC08B8D282F30E04F
:1009E000898D9A8DB9010E946710282F205D2C8F68
:1009F0002C8DED8DFE8D208389819A8101969A83BD
:100A000089838B8D282F30E0898D9A8DB9010E94C2
:100A10006710CB019A8F898F898D9A8D009709F085
:100A2000B8CF14C089819A8101979A83898389817B
:100A30009A81FE013396E80FF91F8081EF89F88DC6
:100A400080838F89988D0196988F8F8B89819A8169
:100A5000181619063CF3EF89F88D10826E960FB6C2
:100A6000F894DEBF0FBECDBFDF91CF910895CF9335
:100A7000DF93CDB7DEB726970FB6F894DEBF0FBE73
:100A8000CDBF9C838B83EB81FC818081882369F1BE
:100A90001A8219821BC089819A819C01220F331FFF
:100AA000C901880F991F880F991F280F391FEB81E3
:100AB000FC818081882F90E0820F931FC0979A83DA
:100AC00089838B819C8101969C838B83EB81FC8144
:100AD0008081803328F0EB81FC8180818A33D8F2D9
:100AE00089819A819E838D8302C01E821D828D81A1
:100AF0009E8126960FB6F894DEBF0FBECDBFDF9164
:100B0000CF910895CF93DF93CDB7DEB780E092E029
:100B10000E942F04DF91CF910895CF93DF93CDB73B
:100B2000DEB721970FB6F894DEBF0FBECDBF898325
:100B300088E092E00E942F0489819AE0692F0E9448
:100B40005B10805D0E94CA0389819AE0692F0E9430
:100B50005B10892F805D0E94CA038CE092E00E94A6
:100B60002F0421960FB6F894DEBF0FBECDBFDF91E4
:100B7000CF910895CF93DF93CDB7DEB726970FB609
:100B8000F894DEBF0FBECDBF8D836E838EE092E002
:100B90000E942F048E81882F90E04AE0BC01CE0194
:100BA00001960E94B804CE0101960E942F048BE3A7
:100BB0000E94CA038D81882F90E04AE0BC01CE01DB
:100BC00001960E94B804CE0101960E942F0488E489
:100BD0000E94CA0326960FB6F894DEBF0FBECDBFA3
:100BE000DF91CF9108951F920F920FB60F921124AB
:100BF0008F939F93AF93BF93EF93FF93CF93DF9325
:100C0000CDB7DEB790916B0480916C04981741F4D6
:100C1000A1ECB0E0E1ECF0E080818F7D8C9311C01D
:100C200080916B048F5F8F7380936B04A6ECB0E0B0
:100C300080916B04882F90E0FC01E55DFB4F808183
:100C40008C93DF91CF91FF91EF91BF91AF919F91E5
:100C50008F910F900FBE0F901F9018951F920F92BB
:100C60000FB60F9211242F933F938F939F93EF937F
:100C7000FF93CF93DF93CDB7DEB780912904882F00
:100C800090E001969C012F73307080912A04882F88
:100C900090E02817390789F080912A048F5F8F73BD
:100CA00080932A0480912A04882F90E0E6ECF0E0FB
:100CB0002081FC01E751FC4F2083DF91CF91FF9110
:100CC000EF919F918F913F912F910F900FBE0F90B9
:100CD0001F901895CF93DF93CDB7DEB721970FB64E
:100CE000F894DEBF0FBECDBFA1EBB0E0E1EBF0E0CA
:100CF000808187608C938FE189838981809580933F
:100D00002F03E0E7F0E01082A6EBB0E0E6EBF0E0C6
:100D1000808180628C93E2EBF0E01082E3EBF0E004
:100D200089818083A0EBB0E0E0EBF0E0808182601D
:100D30008C93E7E3F0E01082A0E7B0E0E0E7F0E0BA
:100D4000808183608C9321960FB6F894DEBF0FBE2E
:100D5000CDBFDF91CF910895CF93DF93CDB7DEB7AD
:100D600022970FB6F894DEBF0FBECDBF809130033F
:100D7000882339F01092300381E090E09A838983D0
:100D800002C01A82198289819A8122960FB6F8943C
:100D9000DEBF0FBECDBFDF91CF9108951F920F929E
:100DA0000FB60F9211248F93EF93FF93CF93DF939E
:100DB000CDB7DEB7E2EBF0E0108281E08093300344
:100DC000DF91CF91FF91EF918F910F900FBE0F9018
:100DD0001F901895CF92EF92FF920F931F93CF938E
:100DE000DF93CDB7DEB724970FB6F894DEBF0FBE02
:100DF000CDBF7894CC24C394EE24E39403E028E0A0
:100E000040E452E46FE070E080E00E9440020E9403
:100E1000820581E192E00E942F041C821B820E94C5
:100E20006A060E9493002B813C81C901880F991F9B
:100E3000820F931F880F991FFC01E75CFC4F808194
:100E4000882309F092C00E9455017B018C018B819F
:100E50009C819C0140E050E0C801B7010E943C1019
:100E6000DC01CB01482F2B813C81C901880F991FE0
:100E7000820F931F880F991F8B5C9C4F642F0E94D9
:100E8000B308EB80FC800E945501DC01CB0123E01C
:100E900030E040E050E0BC01CD010E947B10DA015F
:100EA000C901182F0E945501DC01CB01412F6CE0D4
:100EB0000E94A50A282FC701880F991F8E0D9F1D1C
:100EC000880F991FFC01E65CFC4F20832B813C813D
:100ED000C901880F991F820F931F880F991FFC016A
:100EE000E75CFC4F81E080831A82198239C02B8134
:100EF0003C81C901880F991F820F931F880F991F8A
:100F0000FC01EB5CFC4F4081518129813A81C90190
:100F1000880F991F820F931F880F991FFC01EB5CAC
:100F2000FC4F8081918148175907A9F42B813C819E
:100F300089819A812817390771F02B813C81C90179
:100F4000880F991F820F931F880F991FFC01E75C80
:100F5000FC4F10820AC089819A8101969A83898305
:100F600089819A818E31910510F22B813C81C901D2
:100F7000880F991F820F931F880F991FFC01E65C51
:100F8000FC4F8081882309F04CC02B813C81C90132
:100F9000880F991F820F931F880F991F8B5C9C4F9E
:100FA0000E947C0A2B813C81C901880F991F820F06
:100FB000931F880F991F8B5C9C4F0E9471092B8196
:100FC0003C81C901880F991F820F931F880F991FB9
:100FD0008B5C9C4F0E944009EB80FC800E94550175
:100FE000DC01CB0123E030E040E050E0BC01CD016A
:100FF0000E947B10DA01C901182F0E945501DC0103
:10100000CB01412F6CE00E94A50A282FC701880F51
:10101000991F8E0D9F1D880F991FFC01E65CFC4FE8
:1010200020838B819C8101969C838B838B819C8107
:101030002EE130E0B9010E9467109C838B830E94EF
:101040002208F1CECF93DF93CDB7DEB70E94AC0676
:10105000882309F485C060E082E00E94BA0588E137
:1010600092E00E942F04809179048F5F809379042D
:10107000809179048C33B9F4809178048F5F8093E8
:101080007804809178048C3329F480916D048F5F0B
:1010900080936D04809178049CE3692F0E945B101B
:1010A000892F80937804809179049CE3692F0E94B2
:1010B0005B10892F8093790480916D04882F90E0D4
:1010C0002EE634E04AE0BC01C9010E94B8048091D8
:1010D0006D048A3028F060E085E00E94BA0504C003
:1010E00060E086E00E94BA058EE694E00E942F043C
:1010F00080917804882F90E02EE634E04AE0BC012D
:10110000C9010E94B804809178048A3028F060E018
:1011100085E00E94BA0504C060E086E00E94BA053E
:101120008EE694E00E942F0480917904882F90E04D
:101130002EE634E04AE0BC01C9010E94B804809167
:1011400079048A3028F060E088E00E94BA0504C083
:1011500060E089E00E94BA058EE694E00E942F04C8
:10116000DF91CF910895CF93DF93CDB7DEB723976B
:101170000FB6F894DEBF0FBECDBF9A8389836B8311
:101180008B81882F90E0880F991F482F6CE08B810E
:101190000E94A50A2CE030E0B9010E946710885F28
:1011A000E981FA8183838B8193E0692F0E945B1030
:1011B000282F8B8196E0692F0E945B10422F6CE0F4
:1011C0000E94A50A9C01220F331F220F331FC90161
:1011D000880F991F880F991F820F931F2BE031E012
:1011E000B9010E946710E981FA81918380838B8124
:1011F000282F269526958B8193E0692F0E945B10FE
:10120000422F6CE00E94A50A2CE130E0B9010E9457
:101210006710E981FA81828323960FB6F894DEBFC6
:101220000FBECDBFDF91CF910895CF93DF93CDB7A0
:10123000DEB721970FB6F894DEBF0FBECDBF89830E
:101240008981282F269526958981882F90E0880FFF
:10125000991F880F991F422F6CE00E94A50A2EE566
:1012600030E0B9010E9467108F5D882F90E02196D1
:101270000FB6F894DEBF0FBECDBFDF91CF910895BA
:10128000CF93DF93CDB7DEB722970FB6F894DEBFCA
:101290000FBECDBF9A838983E981FA818281883329
:1012A000B9F4E981FA8182818150E981FA818283EE
:1012B000E981FA8183818150E981FA818383E9811F
:1012C000FA818381823020F4E981FA8183E084838A
:1012D00022960FB6F894DEBF0FBECDBFDF91CF913F
:1012E0000895EF92FF920F931F93CF93DF93CDB7A3
:1012F000DEB722970FB6F894DEBF0FBECDBF9A833C
:101300008983E981FA818281282F30E0E981FA819D
:101310008381882F90E00196A901481B590BCA01CF
:1013200018161906ACF4E981FA819281E981FA81F3
:101330008381592F581B852F282F2150E981FA814D
:1013400080819181622F0E94BA0580E20E94CA03C7
:10135000E981FA818481823099F5E981FA81848179
:10136000833071F1E981FA818281813049F180E233
:101370000E948D05E981FA818281282F2150E9811F
:10138000FA8180819181622F0E94BA050E945501E5
:101390007B018C01E981FA81808191819C0140E08F
:1013A00050E0C801B7010E943C10DC01CB01982F2E
:1013B000E981FA818281890F0E9415090E94CA037E
:1013C000E981FA818481882349F1E981FA81828166
:1013D000883320F581E20E948D05E981FA8122811E
:1013E000E981FA8180819181622F0E94BA050E9471
:1013F00055017B018C01E981FA81808191819C01F9
:1014000040E050E0C801B7010E943C10DC01CB0174
:101410008E5F0E9415090E94CA030DC0E981FA81FE
:101420002281E981FA8180819181622F0E94BA052F
:1014300080E20E94CA03E981FA818481813021F42B
:10144000E981FA8182E08483E981FA8182818F5F78
:10145000E981FA81828322960FB6F894DEBF0FBE2F
:10146000CDBFDF91CF911F910F91FF90EF90089525
:101470001F93CF93DF93CDB7DEB724970FB6F894C1
:10148000DEBF0FBECDBF9A8389830E945501DC0168
:10149000CB01880F991FAA1FBB1F182F0E9455014F
:1014A000DC01CB01412F6CE00E94A50A24E630E06C
:1014B000B9010E9467108D33910580F089819A816E
:1014C0000E947109E981FA8182818150E981FA8162
:1014D000828381E090E09C838B8302C01C821B820C
:1014E0008B819C8124960FB6F894DEBF0FBECDBFD2
:1014F000DF91CF911F910895CF93DF93CDB7DEB7E2
:1015000022970FB6F894DEBF0FBECDBF9A838983B2
:10151000E981FA818281282F30E0E981FA81838193
:10152000882F90E0A901481B590BCA018733910508
:1015300019F4E981FA81148222960FB6F894DEBF7D
:101540000FBECDBFDF91CF910895CF93DF93CDB77D
:10155000DEB723970FB6F894DEBF0FBECDBF8983E9
:101560006A834B838981282F30E08B81882F90E01C
:10157000A901489F9001499F300D589F300D1124BB
:101580008A81882F90E0820F931F23960FB6F894DC
:10159000DEBF0FBECDBFDF91CF910895EF92FF92D6
:1015A0000F931F937B018C0120E030E040E05FE46B
:1015B0000E944D0D88237CF020E030E040E05FE4A5
:1015C000C801B7010E943A0C0E94830D6050704020
:1015D0008040904804C0C801B7010E94830D1F914C
:1015E0000F91FF90EF900895A0E0B0E0EAEFFAE0ED
:1015F0000C949F102C015B01FA01DC019C9192304C
:1016000008F432C1EB018881823008F42CC1943097
:1016100071F4843009F028C1F20191818981981711
:1016200009F422C111E2412E12E0512E1DC1843075
:1016300009F419C18230A9F4923009F015C1CA0128
:10164000A20128E0DA010D90AD01EC010992CE0172
:101650002150C1F7E5018981E201998189238183C4
:1016600000C1923009F4FFC0E201CA80DB80EB01C7
:101670008A819B81E2012C813D814E815F81EB015A
:10168000EC80FD800E811F81B601681B790BDB01A8
:1016900077FF03C0709561957F4F603271050CF044
:1016A0005DC01A161B065CF566247724430181E0B1
:1016B00090E0A0E0B0E0062E04C0880F991FAA1F9A
:1016C000BB1F0A94D2F70197A109B1098E219F216E
:1016D000A023B1230097A105B10529F0B1E06B2E3D
:1016E000712C812C912C04C016950795F794E794E2
:1016F0006A95D2F7E628F728082919293BC0AB2BB1
:10170000C9F1C60ED71E66247724430181E090E01C
:10171000A0E0B0E0062E04C0880F991FAA1FBB1FCF
:101720000A94D2F70197A109B10982239323A42334
:10173000B5230097A105B10529F0A1E06A2E712C0F
:10174000812C912C04C056954795379527956A951D
:10175000D2F726293729482959290CC08C159D050F
:1017600034F06C0120E030E040E050E003C0EE24B3
:10177000FF248701E2019981E5018981981709F425
:1017800043C0992339F0E21AF30A040B150BA801A0
:10179000970104C02E193F09400B510B57FD08C09B
:1017A0001182D382C28224833583468357831DC02E
:1017B00081E08183D382C28288279927DC01821B42
:1017C000930BA40BB50B84839583A683B7830DC0BD
:1017D000220F331F441F551F2483358346835783AD
:1017E000828193810197938382832481358146810D
:1017F0005781DA01C9010197A109B1098F5F9F4F94
:10180000AF4FBF4328F30BC09183D382C2822E0D0A
:101810003F1D401F511F248335834683578383E038
:10182000808324813581468157815523D4F4C901B1
:10183000AA2797FDA095BA2F81709070A070B07004
:101840005695479537952795822B932BA42BB52B2F
:1018500084839583A683B783828193810196938342
:1018600082832F0101C02501C201E0E1CDB7DEB7BF
:101870000C94BB10A0E2B0E0E0E4FCE00C94A910F2
:1018800069837A838B839C832D833E834F83588720
:1018900009E0E02EF12CEC0EFD1EB701CE01019601
:1018A0000E94760F8E010F5E1F4FB801CE01059684
:1018B0000E94760F8A8991E089278A8BAE01475E64
:1018C0005F4FB801C7010E94F40A0E94960EE6E03D
:1018D000A0960C94C510A0E2B0E0E1E7FCE00C9407
:1018E000A91069837A838B839C832D833E834F83E6
:1018F000588789E0E82EF12CEC0EFD1EB701CE01D1
:1019000001960E94760F8E010F5E1F4FB801CE0127
:1019100005960E94760FAE01475E5F4FB801C70182
:101920000E94F40A0E94960EE6E0A0960C94C51060
:10193000A8E1B0E0EEE9FCE00C94A51069837A839D
:101940008B839C832D833E834F8358878E01075F53
:101950001F4FB801CE0101960E94760F81E1E82E5B
:10196000F12CEC0EFD1EB701CE0105960E94760FFC
:1019700039853230F8F02989223010F4B70186C059
:101980008A859A8989278A87343011F0323029F480
:10199000321781F461E272E079C0243039F41D8697
:1019A0001E861F86188A1C861B8604C0223021F4DE
:1019B00084E08987B8016AC06B857C858B899C89A6
:1019C000681B790B7C876B872D853E854F855889F1
:1019D0008D899E89AF89B88D281739074A075B071B
:1019E00040F4220F331F441F551F615070407C8705
:1019F0006B87A12CB12CC12C10E4D12EEE24FF2436
:101A0000870160E070E0281739074A075B0740F05C
:101A1000EA28FB280C291D29281B390B4A0B5B0BD4
:101A2000D694C794B794A794220F331F441F551F11
:101A30006F5F7F4F6F31710531F7D801C7018F7725
:101A40009070A070B07080349105A105B105B9F413
:101A5000E7FC15C0211531054105510581F080E4F1
:101A600090E0A0E0B0E0E80EF91E0A1F1B1F80E81E
:101A70009FEFAFEFBFEFE822F9220A231B23ED8689
:101A8000FE860F87188BBE01675F7F4FCB010E94D8
:101A9000960EEAE068960C94C110A8E1B0E0E3E588
:101AA000FDE00C94A91069837A838B839C832D833A
:101AB0003E834F83588789E0E82EF12CEC0EFD1E03
:101AC000B701CE0101960E94760F8E010F5E1F4F67
:101AD000B801CE0105960E94760F8985823060F0AC
:101AE0008989823048F0B801C7010E94E60F282F8B
:101AF000332727FD309502C02FEF3FEFC901E6E005
:101B000068960C94C510ACE0B0E0E9E8FDE00C94F8
:101B1000AD1069837A838B839C83BE016B5F7F4F9B
:101B2000CE0101960E94760F8D818230A9F182301C
:101B300098F1843021F48E81882359F40FC02F81CD
:101B4000388537FD29C06E812F31310564F0662359
:101B500029F020E030E040E050E822C02FEF3FEFD6
:101B60004FEF5FE71DC08EE190E0821B930B29854C
:101B70003A854B855C8504C05695479537952795E2
:101B80008A95D2F7662361F050954095309521955E
:101B90003F4F4F4F5F4F04C020E030E040E050E047
:101BA000CA01B901E2E02C960C94C910A8E0B0E09B
:101BB000ECEDFDE00C94A7107B018C016115710523
:101BC0008105910519F482E089835AC083E08983F5
:101BD0008EE1C82ED12CDC82CB82ED82FE820F8377
:101BE0001887C801B7010E94490EBC0161507040BE
:101BF00077FF33C0EE27FF27E61BF70B20E030E02E
:101C000040E050E081E090E0A0E0B0E00E2E04C0A3
:101C1000880F991FAA1FBB1F0A94D2F70197A10929
:101C2000B1098E219F21A023B1230097A105B10501
:101C300021F021E030E040E050E004C01695079527
:101C4000F794E794EA95D2F72E293F29402B512BA0
:101C50002D833E834F8358870FC06115710581F036
:101C6000062E04C0EE0CFF1C001F111F0A94D2F7B1
:101C7000ED82FE820F831887C61AD70ADC82CB82D8
:101C80001A82CE0101960E94960EE8E028960C94E6
:101C9000C310EF92FF920F931F939B01AC01203072
:101CA00080E0380781E0480780E0580780F42F3F44
:101CB00031054105510509F020F4EE24FF24870188
:101CC00019C068E0E62EF12C012D112D13C0203033
:101CD00080E0380780E0480781E0580730F490E161
:101CE000E92EF12C012D112D05C088E1E82EF12CF3
:101CF000012D112D80E290E0A0E0B0E08E199F0947
:101D0000A00BB10B04C05695479537952795EA94DB
:101D1000D2F7F901E75DFD4F2081821B9109A109EE
:101D2000B1091F910F91FF90EF9008959F92AF928C
:101D3000BF92CF92DF92EF92FF920F931F93EE2408
:101D4000FF248701FC0124813581468157819180E0
:101D50008081823010F44061A2C0843009F49BC0BD
:101D6000823029F420E030E040E050E005C0211549
:101D700031054105510519F4E0E0F0E092C082819F
:101D800093816FEF823896070CF05AC062E87FEFBC
:101D9000681B790B6A3171052CF020E030E040E0DF
:101DA00050E02AC0AA24BB24650181E090E0A0E0B5
:101DB000B0E0062E04C0880F991FAA1FBB1F0A940B
:101DC000D2F70197A109B10982239323A423B52354
:101DD0000097A105B10529F071E0A72EB12CC12C07
:101DE000D12C04C056954795379527956A95D2F71B
:101DF0002A293B294C295D29DA01C9018F77907086
:101E0000A070B07080349105A105B10539F427FFA9
:101E100009C0205C3F4F4F4F5F4F04C0215C3F4FD4
:101E20004F4F5F4F80E090E0203060E0360760E089
:101E3000460760E4560710F081E090E0FC0123C003
:101E40008038910544F5FC01E158FF4FDA01C901E2
:101E50008F779070A070B07080349105A105B105A6
:101E600039F427FF09C0205C3F4F4F4F5F4F04C03C
:101E7000215C3F4F4F4F5F4F57FF05C05695479529
:101E800037952795319687E056954795379527954D
:101E90008A95D1F706C020E030E040E050E0EFEF57
:101EA000F0E0E22EF32E942F9F77802F8078892BFD
:101EB0009E2F9795992797958F77082F092B9E2FFF
:101EC0009695812F8078892B9794992497948F7772
:101ED000182F1929C801B7011F910F91FF90EF909A
:101EE000DF90CF90BF90AF909F900895CF93DF93F6
:101EF000FC01DB01208131819281492F4F7750E035
:101F0000991F9927991F8381E82FEE0FE92B6E2FD8
:101F100070E0881F8827881FED018983EE2371F503
:101F2000211531054105510511F482E02FC06E578E
:101F30007040FD017383628367E0220F331F441FEB
:101F4000551F6A95D1F783E08C930AC0220F331F87
:101F5000441F551FED018A819B8101979B838A83D2
:101F60002030E0E03E07E0E04E07E0E45E0770F37B
:101F7000ED012C833D834E835F8325C0EF3F79F4D1
:101F8000211531054105510519F484E08C931BC0DE
:101F900044FF03C081E08C9311C01C920FC06F57A7
:101FA0007040ED017B836A8383E08C9387E0220F8E
:101FB000331F441F551F8A95D1F75064FD012483B8
:101FC000358346835783DF91CF910895CF93DF9375
:101FD000DC01FB019C91923008F446C08081823084
:101FE00008F442C0943049F4ED016981843079F5F8
:101FF000818190E0861B91093CC0843021F09230B1
:1020000031F48230A1F18181882371F52AC0ED017C
:1020100069818230E1F081816817C9F4ED012A817C
:102020003B8182819381821793078CF028173907AF
:10203000B4F0ED018C819D81AE81BF812481358119
:1020400046815781281739074A075B0718F466232A
:1020500041F40AC082179307A407B50740F466232A
:1020600019F48FEF9FEF05C081E090E002C080E09F
:1020700090E0DF91CF910895629FD001739FF001AE
:10208000829FE00DF11D649FE00DF11D929FF00D08
:10209000839FF00D749FF00D659FF00D9927729F3F
:1020A000B00DE11DF91F639FB00DE11DF91FBD01CA
:1020B000CF0111240895991B79E004C0991F961748
:1020C00008F0961B881F7A95C9F780950895AA1B7A
:1020D000BB1B51E107C0AA1FBB1FA617B70710F013
:1020E000A61BB70B881F991F5A95A9F78095909545
:1020F000BC01CD010895A1E21A2EAA1BBB1BFD0154
:102100000DC0AA1FBB1FEE1FFF1FA217B307E407D6
:10211000F50720F0A21BB30BE40BF50B661F771F2E
:10212000881F991F1A9469F760957095809590950E
:102130009B01AC01BD01CF0108952F923F924F92B8
:102140005F926F927F928F929F92AF92BF92CF9247
:10215000DF92EF92FF920F931F93CF93DF93CDB750
:10216000DEB7CA1BDB0B0FB6F894DEBF0FBECDBFC8
:1021700009942A88398848885F846E847D848C8499
:102180009B84AA84B984C884DF80EE80FD800C81A2
:102190001B81AA81B981CE0FD11D0FB6F894DEBF85
:0A21A0000FBECDBFED010895FFCF83
:1021AA001B5B324A1B5B48001B5B30006D001B5BEC
:1021BA00001B5B3F32356C0030303A30303A3030F9
:1021CA0000000000000000000000010202030303F7
:1021DA0003040404040404040405050505050505AF
:1021EA00050505050505050505060606060606068E
:1021FA000606060606060606060606060606060675
:10220A00060606060606060606070707070707075D
:10221A000707070707070707070707070707070744
:10222A000707070707070707070707070707070734
:10223A000707070707070707070707070707070724
:10224A00070707070707070707080808080808080D
:10225A0008080808080808080808080808080808F4
:10226A0008080808080808080808080808080808E4
:10227A0008080808080808080808080808080808D4
:10228A0008080808080808080808080808080808C4
:10229A0008080808080808080808080808080808B4
:1022AA0008080808080808080808080808080808A4
:1022BA000808080808080808080808080808080894
:0A22CA0008080808080808080800C2
:00000001FF
