:100000000C9472000C9493000C9493000C94930045
:100010000C9493000C9493000C9493000C94930014
:100020000C9493000C9493000C9493000C94930004
:100030000C9493000C9493000C9493000C949300F4
:100040000C9493000C9493000C9493000C949300E4
:100050000C9493000C9493000C9493000C949300D4
:100060000C9493000C940E080C94D3070C949300FA
:100070000C9493000C9493000C9493000C949300B4
:100080000C9493000C9493000C9493000C949300A4
:100090000C9493000C9493000C9493000C94930094
:1000A0000C9493000C9493000C9493000C94930084
:1000B0000C9493000C9493000C9493000C94930074
:1000C0000C9493000C9493000C9493000C94930064
:1000D0000C9493000C9493000C9493000C94930054
:1000E0000C94930011241FBECFEFD1E2DEBFCDBF31
:1000F00000E00CBF13E0A0E0B2E0EEE5FCE100E0C0
:100100000BBF02C007900D92A032B107D9F714E0DF
:10011000A0E2B3E001C01D92A832B107E1F70E944E
:1001200095000C942E0E0C940000CF92EF920F933A
:10013000CF93DF93CDB7DEB7C05ED5400FB6F8944E
:10014000DEBF0FBECDBF7894CC24C394EE24E394DD
:1001500003E028E040E452E46FE070E080E00E94B9
:1001600020040E94620780E092E00E940F061C8239
:100170001B8216C02B813C81C901880F991F880FF3
:10018000991F820F931F9E012F5F3F4F820F931F76
:10019000FC01389610828B819C8101969C838B8315
:1001A0008B819C8121E08C32920720F32B813C8152
:1001B000C901880F991F880F991F820F931F9E01F5
:1001C0002F5F3F4F820F931FFC0138968081882359
:1001D00009F087C08B819C81CC01A0E0B0E0209128
:1001E0002003309121034091220350912303BC014D
:1001F000CD010E94B80DDC01CB01482F2B813C8141
:10020000C901880F991F880F991F820F931F9C01A6
:10021000CE010596820F931F642F0E94D5012B817A
:100220003C81C901880F991F880F991F820F931F66
:100230009E012F5F3F4F820F931FFC01389681E094
:1002400080831A82198245C02B813C81C901880FA5
:10025000991F880F991F820F931F9E012F5F3F4F99
:10026000820F931FFC0134964081518129813A818C
:10027000C901880F991F880F991F820F931F9E0134
:100280002F5F3F4F820F931FFC0134968081918135
:1002900048175907C9F42B813C8189819A81281715
:1002A000390791F02B813C81C901880F991F880F74
:1002B000991F820F931F9E012F5F3F4F820F931F45
:1002C000FC01389610824FC089819A8101969A83E9
:1002D000898389819A8121E08C32920708F4B4CF16
:1002E00042C02B813C81C901880F991F880F991F3B
:1002F000820F931F9C01CE010596820F931F0E94CF
:10030000A4032B813C81C901880F991F880F991F75
:10031000820F931F9C01CE010596820F931F0E94AE
:100320005A03882301F52B813C81C901880F991F4D
:10033000880F991F820F931F9C01CE010596820F93
:10034000931F0E9493022B813C81C901880F991F42
:10035000880F991F820F931F9C01CE010596820F73
:10036000931F0E9462028B819C8101969C838B83E8
:100370008B819C812CE231E0B9010E94E30D9C83CA
:100380008B838091200390912103A0912203B0914F
:1003900023030196A11DB11D809320039093210397
:1003A000A0932203B093230301CFCF93DF93CDB764
:1003B000DEB723970FB6F894DEBF0FBECDBF9A838A
:1003C00089836B838B81882F90E0880F991F482F3A
:1003D0006CE08B810E94CD032CE030E0B9010E94DB
:1003E000E30D885FE981FA8183838B8193E0692F34
:1003F0000E94D70D282F8B8196E0692F0E94D70D80
:10040000422F6CE00E94CD039C01220F331F220F6C
:10041000331FC901880F991F880F991F820F931FDF
:100420002BE031E0B9010E94E30DE981FA8191836B
:1004300080838B81282F269526958B8193E0692FC9
:100440000E94D70D422F6CE00E94CD032CE130E0DA
:10045000B9010E94E30DE981FA81828323960FB6E8
:10046000F894DEBF0FBECDBFDF91CF910895CF933B
:10047000DF93CDB7DEB721970FB6F894DEBF0FBE7E
:10048000CDBF89838981282F269526958981882F3C
:1004900090E0880F991F880F991F422F6CE00E94EF
:1004A000CD032EE530E0B9010E94E30D8F5D882F6A
:1004B00090E021960FB6F894DEBF0FBECDBFDF915E
:1004C000CF910895CF93DF93CDB7DEB722970FB6C4
:1004D000F894DEBF0FBECDBF9A838983E981FA818C
:1004E00082818833B9F4E981FA8182818150E9817E
:1004F000FA818283E981FA8183818150E981FA81DD
:100500008383E981FA818381823020F4E981FA8151
:1005100083E0848322960FB6F894DEBF0FBECDBF72
:10052000DF91CF910895CF93DF93CDB7DEB72297B8
:100530000FB6F894DEBF0FBECDBF9A838983E981E1
:10054000FA818281282F30E0E981FA818381882F26
:1005500090E00196A901481B590BCA01181619060B
:10056000ACF4E981FA819281E981FA818381592F82
:10057000581B852F282F2150E981FA818081918194
:10058000622F0E949A0780E20E94AA05E981FA81FF
:1005900084818230B9F5E981FA818481833091F1D7
:1005A000E981FA818281813069F180E20E946D07E0
:1005B000E981FA818281282F2150E981FA818081A5
:1005C0009181622F0E949A07E981FA81808191814D
:1005D000CC01A0E0B0E020912003309121034091B4
:1005E000220350912303BC01CD010E94B80DDC0110
:1005F000CB01982FE981FA818281890F0E9437020D
:100600000E94AA05E981FA818481882369F1E98140
:10061000FA818281883340F581E20E946D07E98189
:10062000FA812281E981FA8180819181622F0E9481
:100630009A07E981FA8180819181CC01A0E0B0E044
:1006400020912003309121034091220350912303F4
:10065000BC01CD010E94B80DDC01CB018E5F0E9470
:1006600037020E94AA050DC0E981FA812281E98141
:10067000FA8180819181622F0E949A0780E20E9414
:10068000AA05E981FA818481813021F4E981FA8126
:1006900082E08483E981FA8182818F5FE981FA8136
:1006A000828322960FB6F894DEBF0FBECDBFDF91D6
:1006B000CF910895CF93DF93CDB7DEB724970FB6D0
:1006C000F894DEBF0FBECDBF9A838983809120034B
:1006D00090912103A0912203B0912303880F991FC9
:1006E000AA1FBB1F282F8091200390912103A09166
:1006F0002203B0912303422F6CE00E94CD0324E635
:1007000030E0B9010E94E30D8D33910580F08981BD
:100710009A810E949302E981FA8182818150E98164
:10072000FA81828381E090E09C838B8302C01C82EB
:100730001B828B819C8124960FB6F894DEBF0FBE7E
:10074000CDBFDF91CF910895CF93DF93CDB7DEB7C3
:1007500022970FB6F894DEBF0FBECDBF9A83898370
:10076000E981FA818281282F30E0E981FA81838151
:10077000882F90E0A901481B590BCA0187339105C6
:1007800019F4E981FA81148222960FB6F894DEBF3B
:100790000FBECDBFDF91CF910895CF93DF93CDB73B
:1007A000DEB723970FB6F894DEBF0FBECDBF8983A7
:1007B0006A834B838981282F30E08B81882F90E0DA
:1007C000A901489F9001499F300D589F300D112479
:1007D0008A81882F90E0820F931F23960FB6F8949A
:1007E000DEBF0FBECDBFDF91CF910895CF93DF93D2
:1007F000CDB7DEB722970FB6F894DEBF0FBECDBFE0
:100800008091A403882F90E001969C012F7730708F
:100810008091A503882F90E01A8219822817390742
:1008200021F081E090E09A83898389819A812296E0
:100830000FB6F894DEBF0FBECDBFDF91CF91089504
:10084000CF92EF920F93CF93DF93CDB7DEB763973D
:100850000FB6F894DEBF0FBECDBF8D834E835F838E
:10086000688779872A870B87EC86CD868D81882FCC
:1008700090E0880F991F880F991F880F991F805447
:100880009F4F9C838B838D85882329F56E817F8183
:10089000888599850E94520BDC01CB019C01AD013A
:1008A00060E074E284E799E40E94140ADC01CB0161
:1008B00020E030E040E85FE3BC01CD010E94B609D2
:1008C000DC01CB01BC01CD010E944A08DC01CB0157
:1008D0009A83898324C06E817F81888599850E944F
:1008E000520BDC01CB019C01AD0160E074E284EFAE
:1008F00099E40E94140ADC01CB0120E030E040E8DA
:100900005FE3BC01CD010E94B609DC01CB01BC0153
:10091000CD010E944A08DC01CB019A8389838B8137
:100920009C81FC01359689819A81892F9927808342
:100930008B819C81FC01349689818083EB81FC81D1
:100940008081282F8D85882F90E0880F991F822B1A
:10095000EB81FC8180838B819C81DC0111968B81F2
:100960009C81FC0131968081886B8C938A85282F2D
:1009700030E03B8B2A8B8A899B898730910599F1DE
:100980002A893B89283031055CF48A899B89853026
:10099000910589F02A893B8926303105C1F051C083
:1009A0008A899B898830910551F12A893B892930B0
:1009B000310589F146C08B819C81DC0112968B81C7
:1009C0009C81FC0132968081897F8C933AC08B8117
:1009D0009C81DC0112968B819C81FC013296808186
:1009E00082608C932EC08B819C81DC0112968B815E
:1009F0009C81FC013296808184608C9322C08B8123
:100A00009C81DC0112968B819C81FC013296808155
:100A100086608C9316C08B819C81DC0112968B8141
:100A20009C81FC013296808186608C938B819C81B5
:100A3000DC0111968B819C81FC0131968081846060
:100A40008C938B85282F30E0398B288B8889998966
:100A50008130910509F128893989223031052CF43A
:100A600088899989009761F03AC0288939892230AC
:100A70003105F1F0888999898330910529F12FC0DA
:100A80008B819C81DC0112968B819C81FC013296CA
:100A900080818F7C8C9323C08B819C81DC0112969A
:100AA0008B819C81FC013296808180618C9317C080
:100AB0008B819C81DC0112968B819C81FC0132969A
:100AC000808180628C930BC08B819C81DC011296AB
:100AD0008B819C81FC013296808180638C938C8514
:100AE000282F30E03F872E878E859F8581309105A6
:100AF00031F02E853F852230310569F017C08B819A
:100B00009C81DC0112968B819C81FC013296808154
:100B1000877F8C930BC08B819C81DC0112968B812B
:100B20009C81FC013296808188608C931092A40392
:100B30001092A503109226041092270463960FB614
:100B4000F894DEBF0FBECDBFDF91CF910F91EF9034
:100B5000CF900895CF93DF93CDB7DEB721970FB62F
:100B6000F894DEBF0FBECDBF898380912604882F05
:100B700090E001969C012F77307080912704882F98
:100B800090E02817390789F3809127048F5F8F77CA
:100B90008093270480912704882F90E0FC01EA5578
:100BA000FC4F89818083A1ECB0E0E1ECF0E0808132
:100BB00080628C9321960FB6F894DEBF0FBECDBF36
:100BC000DF91CF910895CF93DF93CDB7DEB7219713
:100BD0000FB6F894DEBF0FBECDBF0E94F603882388
:100BE000E1F78091A4038F5F8F778093A4038091B6
:100BF000A403882F90E0FC01EC5DFC4F8081898389
:100C000089810E94AA058981882F90E021960FB6DC
:100C1000F894DEBF0FBECDBFDF91CF910895CF9383
:100C2000DF93CDB7DEB722970FB6F894DEBF0FBEC5
:100C3000CDBF9A8389830BC0E981FA8120818981A4
:100C40009A8101969A838983822F0E94AA05E9815D
:100C5000FA818081882381F722960FB6F894DEBF4F
:100C60000FBECDBFDF91CF910895CF93DF93CDB766
:100C7000DEB725970FB6F894DEBF0FBECDBF9D83BC
:100C80008C838C819D819B838A830E94E305898369
:100C90003AC089818830B9F42C813D818A819B8159
:100CA0002817390761F080E20E94AA0589810E9415
:100CB000AA058C819D8101979D838C8321C080E250
:100CC0000E94AA051DC08A819B819C012D5E3F4F19
:100CD0008C819D818217930750F088E00E94AA05BD
:100CE00080E20E94AA0588E00E94AA0509C0EC8162
:100CF000FD81898180838C819D8101969D838C8378
:100D00000E94E305898389818D3019F68DE00E9468
:100D1000AA058AE00E94AA05EC81FD811082259631
:100D20000FB6F894DEBF0FBECDBFDF91CF9108950F
:100D3000CF93DF93CDB7DEB76E970FB6F894DEBFD3
:100D40000FBECDBF988F8F8B7A8F698F4B8F1A8292
:100D5000198289819A819E012D5F3F4F3E8F2D8F91
:100D6000ED8DFE8DE80FF91FFE8FED8F8B8D282FF7
:100D700030E0898D9A8DB9010E94E30D8A3091058A
:100D800060F08B8D282F30E0898D9A8DB9010E94FB
:100D9000E30DF82FF95CFC8F0BC08B8D282F30E012
:100DA000898D9A8DB9010E94E30D282F205D2C8F2B
:100DB0002C8DED8DFE8D208389819A8101969A83F9
:100DC00089838B8D282F30E0898D9A8DB9010E94FF
:100DD000E30DCB019A8F898F898D9A8D009709F049
:100DE000B8CF14C089819A8101979A8389838981B8
:100DF0009A81FE013396E80FF91F8081EF89F88D03
:100E000080838F89988D0196988F8F8B89819A81A5
:100E1000181619063CF3EF89F88D10826E960FB6FE
:100E2000F894DEBF0FBECDBFDF91CF910895CF9371
:100E3000DF93CDB7DEB726970FB6F894DEBF0FBEAF
:100E4000CDBF9C838B83EB81FC818081882369F1FA
:100E50001A8219821BC089819A819C01220F331F3B
:100E6000C901880F991F880F991F280F391FEB811F
:100E7000FC818081882F90E0820F931FC0979A8316
:100E800089838B819C8101969C838B83EB81FC8180
:100E90008081803328F0EB81FC8180818A33D8F215
:100EA00089819A819E838D8302C01E821D828D81DD
:100EB0009E8126960FB6F894DEBF0FBECDBFDF91A0
:100EC000CF910895CF93DF93CDB7DEB787E092E05F
:100ED0000E940F06DF91CF910895CF93DF93CDB796
:100EE000DEB721970FB6F894DEBF0FBECDBF898362
:100EF0008FE092E00E940F0689819AE0692F0E949C
:100F0000D70D805D0E94AA0589819AE0692F0E9411
:100F1000D70D892F805D0E94AA0583E192E00E948F
:100F20000F0621960FB6F894DEBF0FBECDBFDF913E
:100F3000CF910895CF93DF93CDB7DEB726970FB645
:100F4000F894DEBF0FBECDBF8D836E8385E192E046
:100F50000E940F068E81882F90E04AE0BC01CE01EE
:100F600001960E949806CE0101960E940F068BE31F
:100F70000E94AA058D81882F90E04AE0BC01CE0135
:100F800001960E949806CE0101960E940F0688E401
:100F90000E94AA0526960FB6F894DEBF0FBECDBFFD
:100FA000DF91CF9108951F920F920FB60F921124E7
:100FB0008F939F93AF93BF93EF93FF93CF93DF9361
:100FC000CDB7DEB79091260480912704981741F49D
:100FD000A1ECB0E0E1ECF0E080818F7D8C9311C05A
:100FE000809126048F5F8F7780932604A6ECB0E073
:100FF00080912604882F90E0FC01EA55FC4F808107
:101000008C93DF91CF91FF91EF91BF91AF919F9121
:101010008F910F900FBE0F901F9018951F920F92F7
:101020000FB60F9211242F933F938F939F93EF93BB
:10103000FF93CF93DF93CDB7DEB78091A403882FC2
:1010400090E001969C012F7730708091A503882F46
:1010500090E02817390789F08091A5038F5F8F777B
:101060008093A5038091A503882F90E0E6ECF0E043
:101070002081FC01EC5DFC4F2083DF91CF91FF913B
:10108000EF919F918F913F912F910F900FBE0F90F5
:101090001F901895EF92FF920F931F937B018C0185
:1010A00020E030E040E05FE40E94C90A88237CF041
:1010B00020E030E040E05FE4C801B7010E94B609DB
:1010C0000E94FF0A605070408040904804C0C801F0
:1010D000B7010E94FF0A1F910F91FF90EF900895B2
:1010E000A0E0B0E0E6E7F8E00C94F90D2C015B011C
:1010F000FA01DC019C91923008F432C1EB01888145
:10110000823008F42CC1943071F4843009F028C185
:10111000F20191818981981709F422C118E1412EC9
:1011200012E0512E1DC1843009F419C18230A9F496
:10113000923009F015C1CA01A20128E0DA010D9030
:10114000AD01EC010992CE012150C1F7E501898181
:10115000E20199818923818300C1923009F4FFC0A3
:10116000E201CA80DB80EB018A819B81E2012C8154
:101170003D814E815F81EB01EC80FD800E811F81FE
:10118000B601681B790BDB0177FF03C07095619591
:101190007F4F603271050CF05DC01A161B065CF5BE
:1011A00066247724430181E090E0A0E0B0E0062EC1
:1011B00004C0880F991FAA1FBB1F0A94D2F701977A
:1011C000A109B1098E219F21A023B1230097A10578
:1011D000B10529F0B1E06B2E712C812C912C04C04B
:1011E00016950795F794E7946A95D2F7E628F728BD
:1011F000082919293BC0AB2BC9F1C60ED71E66249E
:101200007724430181E090E0A0E0B0E0062E04C026
:10121000880F991FAA1FBB1F0A94D2F70197A10933
:10122000B10982239323A423B5230097A105B10517
:1012300029F0A1E06A2E712C812C912C04C05695C6
:101240004795379527956A95D2F726293729482952
:1012500059290CC08C159D0534F06C0120E030E05C
:1012600040E050E003C0EE24FF248701E2019981B1
:10127000E5018981981709F443C0992339F0E21AEE
:10128000F30A040B150BA801970104C02E193F099E
:10129000400B510B57FD08C01182D382C2822483B8
:1012A0003583468357831DC081E08183D382C28208
:1012B00088279927DC01821B930BA40BB50B848331
:1012C0009583A683B7830DC0220F331F441F551F7C
:1012D0002483358346835783828193810197938347
:1012E00082832481358146815781DA01C9010197C2
:1012F000A109B1098F5F9F4FAF4FBF4328F30BC0C8
:101300009183D382C2822E0D3F1D401F511F248323
:1013100035834683578383E08083248135814681EA
:1013200057815523D4F4C901AA2797FDA095BA2F58
:1013300081709070A070B07056954795379527953D
:10134000822B932BA42BB52B84839583A683B78301
:10135000828193810196938382832F0101C02501AD
:10136000C201E0E1CDB7DEB70C94150EA0E2B0E00B
:10137000ECEBF9E00C94030E69837A838B839C83F6
:101380002D833E834F83588709E0E02EF12CEC0E2D
:10139000FD1EB701CE0101960E94F20C8E010F5E78
:1013A0001F4FB801CE0105960E94F20C8A8991E088
:1013B00089278A8BAE01475E5F4FB801C7010E9443
:1013C00070080E94120CE6E0A0960C941F0EA0E29A
:1013D000B0E0EDEEF9E00C94030E69837A838B8321
:1013E0009C832D833E834F83588789E0E82EF12C20
:1013F000EC0EFD1EB701CE0101960E94F20C8E018B
:101400000F5E1F4FB801CE0105960E94F20CAE018F
:10141000475E5F4FB801C7010E9470080E94120C1E
:10142000E6E0A0960C941F0EA8E1B0E0EAE1FAE035
:101430000C94FF0D69837A838B839C832D833E8379
:101440004F8358878E01075F1F4FB801CE01019669
:101450000E94F20C81E1E82EF12CEC0EFD1EB7018A
:10146000CE0105960E94F20C39853230F8F02989B8
:10147000223010F4B70186C08A859A8989278A8725
:10148000343011F0323029F4321781F468E172E01F
:1014900079C0243039F41D861E861F86188A1C8662
:1014A0001B8604C0223021F484E08987B8016AC019
:1014B0006B857C858B899C89681B790B7C876B8706
:1014C0002D853E854F8558898D899E89AF89B88D38
:1014D000281739074A075B0740F4220F331F441FC0
:1014E000551F615070407C876B87A12CB12CC12C9B
:1014F00010E4D12EEE24FF24870160E070E028176D
:1015000039074A075B0740F0EA28FB280C291D2908
:10151000281B390B4A0B5B0BD694C794B794A7943E
:10152000220F331F441F551F6F5F7F4F6F317105AF
:1015300031F7D801C7018F779070A070B0708034F8
:101540009105A105B105B9F4E7FC15C021153105D8
:101550004105510581F080E490E0A0E0B0E0E80EA4
:10156000F91E0A1F1B1F80E89FEFAFEFBFEFE822B5
:10157000F9220A231B23ED86FE860F87188BBE01F6
:10158000675F7F4FCB010E94120CEAE068960C94D3
:101590001B0EA8E1B0E0EFECFAE00C94030E6983B7
:1015A0007A838B839C832D833E834F83588789E086
:1015B000E82EF12CEC0EFD1EB701CE0101960E9423
:1015C000F20C8E010F5E1F4FB801CE0105960E94EE
:1015D000F20C8985823060F08989823048F0B80148
:1015E000C7010E94620D282F332727FD309502C0C6
:1015F0002FEF3FEFC901E6E068960C941F0EACE0B8
:10160000B0E0E5E0FBE00C94070E69837A838B83FE
:101610009C83BE016B5F7F4FCE0101960E94F20C4E
:101620008D818230A9F1823098F1843021F48E814D
:10163000882359F40FC02F81388537FD29C06E816A
:101640002F31310564F0662329F020E030E040E0DE
:1016500050E822C02FEF3FEF4FEF5FE71DC08EE154
:1016600090E0821B930B29853A854B855C8504C0ED
:1016700056954795379527958A95D2F7662361F059
:1016800050954095309521953F4F4F4F5F4F04C087
:1016900020E030E040E050E0CA01B901E2E02C96E1
:1016A0000C94230EA8E0B0E0E8E5FBE00C94010EFA
:1016B0007B018C01611571058105910519F482E0AA
:1016C00089835AC083E089838EE1C82ED12CDC82C5
:1016D000CB82ED82FE820F831887C801B7010E947A
:1016E000C50BBC016150704077FF33C0EE27FF2768
:1016F000E61BF70B20E030E040E050E081E090E0B6
:10170000A0E0B0E00E2E04C0880F991FAA1FBB1FD7
:101710000A94D2F70197A109B1098E219F21A02334
:10172000B1230097A105B10521F021E030E040E0B0
:1017300050E004C016950795F794E794EA95D2F720
:101740002E293F29402B512B2D833E834F835887D1
:101750000FC06115710581F0062E04C0EE0CFF1C50
:10176000001F111F0A94D2F7ED82FE820F831887A3
:10177000C61AD70ADC82CB821A82CE0101960E9459
:10178000120CE8E028960C941D0EEF92FF920F9336
:101790001F939B01AC01203080E0380781E04807AF
:1017A00080E0580780F42F3F31054105510509F0CD
:1017B00020F4EE24FF24870119C068E0E62EF12C06
:1017C000012D112D13C0203080E0380780E048073C
:1017D00081E0580730F490E1E92EF12C012D112D14
:1017E00005C088E1E82EF12C012D112D80E290E05A
:1017F000A0E0B0E08E199F09A00BB10B04C0569574
:10180000479537952795EA94D2F7F901E05EFD4FA9
:101810002081821B9109A109B1091F910F91FF90AD
:10182000EF9008959F92AF92BF92CF92DF92EF9286
:10183000FF920F931F93EE24FF248701FC01248164
:1018400035814681578191808081823010F44061DA
:10185000A2C0843009F49BC0823029F420E030E03B
:1018600040E050E005C0211531054105510519F44E
:10187000E0E0F0E092C0828193816FEF82389607BA
:101880000CF05AC062E87FEF681B790B6A31710572
:101890002CF020E030E040E050E02AC0AA24BB2435
:1018A000650181E090E0A0E0B0E0062E04C0880F62
:1018B000991FAA1FBB1F0A94D2F70197A109B1096A
:1018C00082239323A423B5230097A105B10529F012
:1018D00071E0A72EB12CC12CD12C04C05695479590
:1018E000379527956A95D2F72A293B294C295D29F6
:1018F000DA01C9018F779070A070B07080349105C3
:10190000A105B10539F427FF09C0205C3F4F4F4FB7
:101910005F4F04C0215C3F4F4F4F5F4F80E090E02E
:10192000203060E0360760E0460760E4560710F0BC
:1019300081E090E0FC0123C08038910544F5FC0172
:10194000E158FF4FDA01C9018F779070A070B07035
:1019500080349105A105B10539F427FF09C0205C49
:101960003F4F4F4F5F4F04C0215C3F4F4F4F5F4F82
:1019700057FF05C05695479537952795319687E0CF
:1019800056954795379527958A95D1F706C020E05B
:1019900030E040E050E0EFEFF0E0E22EF32E942F45
:1019A0009F77802F8078892B9E2F979599279795E1
:1019B0008F77082F092B9E2F9695812F8078892B62
:1019C0009794992497948F77182F1929C801B701F4
:1019D0001F910F91FF90EF90DF90CF90BF90AF904D
:1019E0009F900895CF93DF93FC01DB01208131812B
:1019F0009281492F4F7750E0991F9927991F838132
:101A0000E82FEE0FE92B6E2F70E0881F8827881FC4
:101A1000ED018983EE2371F521153105410551054D
:101A200011F482E02FC06E577040FD017383628312
:101A300067E0220F331F441F551F6A95D1F783E0DB
:101A40008C930AC0220F331F441F551FED018A815A
:101A50009B8101979B838A832030E0E03E07E0E092
:101A60004E07E0E45E0770F3ED012C833D834E8367
:101A70005F8325C0EF3F79F42115310541055105FC
:101A800019F484E08C931BC044FF03C081E08C9365
:101A900011C01C920FC06F577040ED017B836A83A9
:101AA00083E08C9387E0220F331F441F551F8A95D4
:101AB000D1F75064FD012483358346835783DF913A
:101AC000CF910895CF93DF93DC01FB019C9192307D
:101AD00008F446C08081823008F442C0943049F452
:101AE000ED016981843079F5818190E0861B91094F
:101AF0003CC0843021F0923031F48230A1F18181F8
:101B0000882371F52AC0ED0169818230E1F081817D
:101B10006817C9F4ED012A813B8182819381821784
:101B200093078CF028173907B4F0ED018C819D8163
:101B3000AE81BF81248135814681578128173907BD
:101B40004A075B0718F4662341F40AC0821793071B
:101B5000A407B50740F4662319F48FEF9FEF05C083
:101B600081E090E002C080E090E0DF91CF910895A5
:101B7000629FD001739FF001829FE00DF11D649F71
:101B8000E00DF11D929FF00D839FF00D749FF00DFD
:101B9000659FF00D9927729FB00DE11DF91F639F9E
:101BA000B00DE11DF91FBD01CF0111240895991B4E
:101BB00079E004C0991F961708F0961B881F7A9544
:101BC000C9F780950895AA1BBB1B51E107C0AA1F46
:101BD000BB1FA617B70710F0A61BB70B881F991FCE
:101BE0005A95A9F780959095BC01CD0108952F9243
:101BF0003F924F925F926F927F928F929F92AF929D
:101C0000BF92CF92DF92EF92FF920F931F93CF93E9
:101C1000DF93CDB7DEB7CA1BDB0B0FB6F894DEBF80
:101C20000FBECDBF19942A88398848885F846E8496
:101C30007D848C849B84AA84B984C884DF80EE80F0
:101C4000FD800C811B81AA81B981CE0FD11D0FB6F9
:0E1C5000F894DEBF0FBECDBFED010895FFCFAB
:101C5E001B5B3F32356C001B5B324A1B5B48001B23
:101C6E005B30006D001B5B000000000000000000F8
:101C7E000001020203030303040404040404040425
:101C8E0005050505050505050505050505050505F6
:101C9E0006060606060606060606060606060606D6
:101CAE0006060606060606060606060606060606C6
:101CBE0007070707070707070707070707070707A6
:101CCE000707070707070707070707070707070796
:101CDE000707070707070707070707070707070786
:101CEE000707070707070707070707070707070776
:101CFE000808080808080808080808080808080856
:101D0E000808080808080808080808080808080845
:101D1E000808080808080808080808080808080835
:101D2E000808080808080808080808080808080825
:101D3E000808080808080808080808080808080815
:101D4E000808080808080808080808080808080805
:101D5E0008080808080808080808080808080808F5
:101D6E0008080808080808080808080808080808E5
:00000001FF
