:100000000C9472000C9491000C9491000C9491004B
:100010000C9491000C9491000C9491000C9491001C
:100020000C9491000C9491000C9491000C9491000C
:100030000C9491000C9491000C9491000C949100FC
:100040000C9491000C9491000C9491000C949100EC
:100050000C9491000C9491000C9491000C949100DC
:100060000C9491000C9491000C9491000C949100CC
:100070000C9491000C9491000C9491000C949100BC
:100080000C9491000C9491000C9491000C949100AC
:100090000C9491000C9491000C9491000C9491009C
:1000A0000C9491000C9491000C9491000C9491008C
:1000B0000C9491000C9491000C9491000C9491007C
:1000C0000C9491000C9491000C9491000C9491006C
:1000D0000C9491000C9491000C9491000C9491005C
:1000E0000C94910011241FBECFEFD1E2DEBFCDBF33
:1000F00012E0A0E0B2E0E2E6F8E000E00BBF02C0F0
:1001000007900D92A030B107D9F712E0A0E0B2E05D
:1001100001C01D92A930B107E1F70E94D0000C94F4
:1001200030040C940000CF93DF93CDB7DEB7229755
:100130000FB6F894DEBF0FBECDBF9A838983898145
:100140009A8128E433E0AC01429FC001439F900DA7
:10015000529F900D11249A83898389819A810197F6
:100160009A83898389819A815FEF8F3F9507A9F7E9
:1001700022960FB6F894DEBF0FBECDBFDF91CF91B0
:100180000895CF93DF93CDB7DEB7E0E3F0E08FE7DC
:100190008083E1E3F0E08FEB8083DF91CF910895DE
:1001A000CF93DF93CDB7DEB729970FB6F894DEBFB4
:1001B0000FBECDBF1D821C821B821A8219828091C4
:1001C000050290910602A0910702B0910802809367
:1001D000000290930102A0930202B09303020E94D6
:1001E000C10081E090E00E9493000E94BB01282F93
:1001F00030E039872887888599858130910531F0ED
:10020000288539852230310529F005C08D818F5F21
:100210008D8301C01D828D81282F30E03F832E8386
:100220008E819F8182309105C1F12E813F812330E3
:1002300031052CF48E819F81009771F078C02E815A
:100240003F812330310509F450C08E819F81843075
:10025000910509F458C06BC08AE00E94BB03882F47
:1002600090E001969C01220F331F220F331FC9011A
:10027000880F991F880F991F820F931F2FEF30E06F
:10028000B9010E94E7039C838B83109204021A82B7
:1002900019828D818F5F8D834AC080910502909174
:1002A0000602A0910702B09108022AE030E040E087
:1002B00050E0BC01CD010E94FA03DC01CB010097A4
:1002C000A105B10541F48B819C8101979C838B83AF
:1002D0008B81809304028B819C81009741F58D81F5
:1002E0008F5F8D831A82198222C08B819C81009737
:1002F00021F08D818F5F8D831AC089819A8101964B
:100300009A83898314C08B819C8129813A81820FD1
:10031000931F8F31910530F086E08D8380EF8093BD
:10032000040205C085E08D838FEF809304028981EC
:100330009A8121E08C32920710F48D9A01C08D9839
:100340008D810E94660281E090E00E94930080917E
:10035000050290910602A0910702B0910802019651
:10036000A11DB11D8093050290930602A093070280
:10037000B09308023ACFCF93DF93CDB7DEB7219782
:100380000FB6F894DEBF0FBECDBF198220910502D3
:1003900030910602409107025091080280910002BC
:1003A00090910102A0910202B0910302281739072F
:1003B0004A075B07D1F08091050290910602A09157
:1003C0000702B09108022091000230910102409191
:1003D000020250910302821B930BA40BB50B8630D3
:1003E0009105A105B10508F465C0EFE2F0E0808158
:1003F00088230CF05FC08091050290910602A091C5
:100400000702B09108022091000230910102409150
:10041000020250910302821B930BA40BB50B84368E
:100420009105A105B105C0F42091050230910602A5
:1004300040910702509108028091000290910102C0
:10044000A0910202B0910302281739074A075B07FF
:1004500019F081E089831BC080910502909106020A
:10046000A0910702B0910802209100023091010290
:100470004091020250910302821B930BA40BB50B17
:1004800084369105A105B10510F082E08983809141
:10049000050290910602A0910702B0910802019610
:1004A000A11DB11D8093000290930102A09302024E
:1004B000B09303028981882F90E021960FB6F894BB
:1004C000DEBF0FBECDBFDF91CF910895CF93DF93F5
:1004D000CDB7DEB723970FB6F894DEBF0FBECDBF02
:1004E00089838981282F30E03B832A838A819B81FD
:1004F0008330910509F44BC02A813B8124303105BA
:100500005CF48A819B818130910591F02A813B8145
:1005100022303105B9F17EC08A819B8185309105F9
:1005200009F459C02A813B8126303105A1F172C0FE
:100530008091040280950E9413038091050290919E
:100540000602A0910702B09108022AE030E040E0E4
:1005500050E0BC01CD010E94FA03DC01CB01009701
:10056000A105B10509F056C080910402882321F449
:1005700080E8809304024EC08091040286958093A7
:10058000040248C0809104020E94130343C080E02B
:100590000E9413033FC0809104020E9413038091C4
:1005A000050290910602A0910702B091080222E391
:1005B00030E040E050E0BC01CD010E94FA03DC01D4
:1005C000CB010097A105B10529F580910402809522
:1005D000809304021FC0809104020E941303809143
:1005E000050290910602A0910702B091080229E14C
:1005F00030E040E050E0BC01CD010E94FA03DC0194
:10060000CB010097A105B10529F4809104028095E2
:100610008093040223960FB6F894DEBF0FBECDBFC1
:10062000DF91CF910895CF93DF93CDB7DEB72197B8
:100630000FB6F894DEBF0FBECDBF8983809A819A32
:100640008298839888988981882F90E08170907033
:10065000882311F0899A01C0899881E090E00E9476
:100660009300899889818695882F90E08170907099
:10067000882311F0889A01C0889881E090E00E9458
:1006800093008098829A8998898186958695882F8B
:1006900090E081709070882311F08A9A01C08A9846
:1006A00081E090E00E9493008A98898186958695E2
:1006B0008695882F90E081709070882311F0899A38
:1006C00001C0899881E090E00E9493008198809A0F
:1006D0008A98898182958F70882F90E081709070C0
:1006E000882311F0889A01C0889881E090E00E94E8
:1006F000930088988981829586958770882F90E0ED
:1007000081709070882311F08A9A01C08A9881E0E4
:1007100090E00E949300839A8298889889818295BC
:10072000869586958370882F90E0817090708823DD
:1007300011F08B9A01C08B9881E090E00E949300A9
:100740008B988981881F8827881F882F90E0817067
:100750009070882311F0889A01C0889881E090E019
:100760000E94930021960FB6F894DEBF0FBECDBF56
:10077000DF91CF91089582E23AE14FEF50E167E2D5
:10078000B5E08395839F912DA02D742F0E94D403F3
:10079000513018F05A958A2FF4CF613018F06A95CD
:1007A0005FEFEFCF882F0895A71738F0A71B913080
:1007B00018F09A95AFEFF8CF0895913038F0272FC1
:1007C0002A1B9A95AFEFA21BA395EECF089597FB36
:1007D000092E07260AD077FD04D02ED006D000209F
:1007E0001AF4709561957F4F0895F6F7909581956D
:1007F0009F4F0895A1E21A2EAA1BBB1BFD010DC03D
:10080000AA1FBB1FEE1FFF1FA217B307E407F507C0
:1008100020F0A21BB30BE40BF50B661F771F881F9C
:10082000991F1A9469F760957095809590959B0132
:10083000AC01BD01CF010895AA1BBB1B51E107C04C
:10084000AA1FBB1FA617B70710F0A61BB70B881F60
:10085000991F5A95A9F780959095BC01CD010895EF
:02086000FFCFC8
:00000001FF
